{
	"contracts/FundMe.sol": {
		"FundMe": {
			"abi": [
				{
					"inputs": [
						{
							"internalType": "address",
							"name": "",
							"type": "address"
						}
					],
					"name": "addressToAmountFunded",
					"outputs": [
						{
							"internalType": "uint256",
							"name": "",
							"type": "uint256"
						}
					],
					"stateMutability": "view",
					"type": "function"
				},
				{
					"inputs": [],
					"name": "fund",
					"outputs": [],
					"stateMutability": "payable",
					"type": "function"
				},
				{
					"inputs": [
						{
							"internalType": "uint256",
							"name": "",
							"type": "uint256"
						}
					],
					"name": "funders",
					"outputs": [
						{
							"internalType": "address",
							"name": "",
							"type": "address"
						}
					],
					"stateMutability": "view",
					"type": "function"
				},
				{
					"inputs": [],
					"name": "minimumUsd",
					"outputs": [
						{
							"internalType": "uint256",
							"name": "",
							"type": "uint256"
						}
					],
					"stateMutability": "view",
					"type": "function"
				},
				{
					"inputs": [],
					"name": "withdraw",
					"outputs": [],
					"stateMutability": "nonpayable",
					"type": "function"
				}
			],
			"devdoc": {
				"kind": "dev",
				"methods": {},
				"version": 1
			},
			"evm": {
				"assembly": "    /* \"contracts/FundMe.sol\":90:1195  contract FundMe {... */\n  mstore(0x40, 0x80)\n    /* \"contracts/FundMe.sol\":179:188  50 * 1e18 */\n  0x02b5e3af16b1880000\n    /* \"contracts/FundMe.sol\":151:188  uint256 public minimumUsd = 50 * 1e18 */\n  0x00\n  sstore\n    /* \"contracts/FundMe.sol\":90:1195  contract FundMe {... */\n  callvalue\n  dup1\n  iszero\n  tag_1\n  jumpi\n  0x00\n  dup1\n  revert\ntag_1:\n  pop\n  dataSize(sub_0)\n  dup1\n  dataOffset(sub_0)\n  0x00\n  codecopy\n  0x00\n  return\nstop\n\nsub_0: assembly {\n        /* \"contracts/FundMe.sol\":90:1195  contract FundMe {... */\n      mstore(0x40, 0x80)\n      jumpi(tag_1, lt(calldatasize, 0x04))\n      shr(0xe0, calldataload(0x00))\n      dup1\n      0x098de820\n      eq\n      tag_2\n      jumpi\n      dup1\n      0x3ccfd60b\n      eq\n      tag_3\n      jumpi\n      dup1\n      0x3e47d6f3\n      eq\n      tag_4\n      jumpi\n      dup1\n      0xb60d4288\n      eq\n      tag_5\n      jumpi\n      dup1\n      0xdc0d3dff\n      eq\n      tag_6\n      jumpi\n    tag_1:\n      0x00\n      dup1\n      revert\n        /* \"contracts/FundMe.sol\":151:188  uint256 public minimumUsd = 50 * 1e18 */\n    tag_2:\n      callvalue\n      dup1\n      iszero\n      tag_7\n      jumpi\n      0x00\n      dup1\n      revert\n    tag_7:\n      pop\n      tag_8\n      tag_9\n      jump\t// in\n    tag_8:\n      mload(0x40)\n      tag_10\n      swap2\n      swap1\n      tag_11\n      jump\t// in\n    tag_10:\n      mload(0x40)\n      dup1\n      swap2\n      sub\n      swap1\n      return\n        /* \"contracts/FundMe.sol\":609:1192  function withdraw() public {... */\n    tag_3:\n      callvalue\n      dup1\n      iszero\n      tag_12\n      jumpi\n      0x00\n      dup1\n      revert\n    tag_12:\n      pop\n      tag_13\n      tag_14\n      jump\t// in\n    tag_13:\n      stop\n        /* \"contracts/FundMe.sol\":225:281  mapping(address => uint256) public addressToAmountFunded */\n    tag_4:\n      callvalue\n      dup1\n      iszero\n      tag_15\n      jumpi\n      0x00\n      dup1\n      revert\n    tag_15:\n      pop\n      tag_16\n      0x04\n      dup1\n      calldatasize\n      sub\n      dup2\n      add\n      swap1\n      tag_17\n      swap2\n      swap1\n      tag_18\n      jump\t// in\n    tag_17:\n      tag_19\n      jump\t// in\n    tag_16:\n      mload(0x40)\n      tag_20\n      swap2\n      swap1\n      tag_11\n      jump\t// in\n    tag_20:\n      mload(0x40)\n      dup1\n      swap2\n      sub\n      swap1\n      return\n        /* \"contracts/FundMe.sol\":285:606  function fund() public payable {... */\n    tag_5:\n      tag_21\n      tag_22\n      jump\t// in\n    tag_21:\n      stop\n        /* \"contracts/FundMe.sol\":195:219  address[] public funders */\n    tag_6:\n      callvalue\n      dup1\n      iszero\n      tag_23\n      jumpi\n      0x00\n      dup1\n      revert\n    tag_23:\n      pop\n      tag_24\n      0x04\n      dup1\n      calldatasize\n      sub\n      dup2\n      add\n      swap1\n      tag_25\n      swap2\n      swap1\n      tag_26\n      jump\t// in\n    tag_25:\n      tag_27\n      jump\t// in\n    tag_24:\n      mload(0x40)\n      tag_28\n      swap2\n      swap1\n      tag_29\n      jump\t// in\n    tag_28:\n      mload(0x40)\n      dup1\n      swap2\n      sub\n      swap1\n      return\n        /* \"contracts/FundMe.sol\":151:188  uint256 public minimumUsd = 50 * 1e18 */\n    tag_9:\n      sload(0x00)\n      dup2\n      jump\t// out\n        /* \"contracts/FundMe.sol\":609:1192  function withdraw() public {... */\n    tag_14:\n        /* \"contracts/FundMe.sol\":648:667  uint256 funderIndex */\n      0x00\n        /* \"contracts/FundMe.sol\":643:814  for (uint256 funderIndex; funderIndex < funders.length; funderIndex++) {... */\n    tag_31:\n        /* \"contracts/FundMe.sol\":683:690  funders */\n      0x01\n        /* \"contracts/FundMe.sol\":683:697  funders.length */\n      dup1\n      sload\n      swap1\n      pop\n        /* \"contracts/FundMe.sol\":669:680  funderIndex */\n      dup2\n        /* \"contracts/FundMe.sol\":669:697  funderIndex < funders.length */\n      lt\n        /* \"contracts/FundMe.sol\":643:814  for (uint256 funderIndex; funderIndex < funders.length; funderIndex++) {... */\n      iszero\n      tag_32\n      jumpi\n        /* \"contracts/FundMe.sol\":725:739  address funder */\n      0x00\n        /* \"contracts/FundMe.sol\":742:749  funders */\n      0x01\n        /* \"contracts/FundMe.sol\":750:761  funderIndex */\n      dup3\n        /* \"contracts/FundMe.sol\":742:762  funders[funderIndex] */\n      dup2\n      sload\n      dup2\n      lt\n      tag_34\n      jumpi\n      tag_35\n      tag_36\n      jump\t// in\n    tag_35:\n    tag_34:\n      swap1\n      0x00\n      mstore\n      keccak256(0x00, 0x20)\n      add\n      0x00\n      swap1\n      sload\n      swap1\n      0x0100\n      exp\n      swap1\n      div\n      0xffffffffffffffffffffffffffffffffffffffff\n      and\n        /* \"contracts/FundMe.sol\":725:762  address funder = funders[funderIndex] */\n      swap1\n      pop\n        /* \"contracts/FundMe.sol\":805:806  0 */\n      0x00\n        /* \"contracts/FundMe.sol\":773:794  addressToAmountFunded */\n      0x02\n        /* \"contracts/FundMe.sol\":773:802  addressToAmountFunded[funder] */\n      0x00\n        /* \"contracts/FundMe.sol\":795:801  funder */\n      dup4\n        /* \"contracts/FundMe.sol\":773:802  addressToAmountFunded[funder] */\n      0xffffffffffffffffffffffffffffffffffffffff\n      and\n      0xffffffffffffffffffffffffffffffffffffffff\n      and\n      dup2\n      mstore\n      0x20\n      add\n      swap1\n      dup2\n      mstore\n      0x20\n      add\n      0x00\n      keccak256\n        /* \"contracts/FundMe.sol\":773:806  addressToAmountFunded[funder] = 0 */\n      dup2\n      swap1\n      sstore\n      pop\n        /* \"contracts/FundMe.sol\":714:814  {... */\n      pop\n        /* \"contracts/FundMe.sol\":699:712  funderIndex++ */\n      dup1\n      dup1\n      tag_38\n      swap1\n      tag_39\n      jump\t// in\n    tag_38:\n      swap2\n      pop\n      pop\n        /* \"contracts/FundMe.sol\":643:814  for (uint256 funderIndex; funderIndex < funders.length; funderIndex++) {... */\n      jump(tag_31)\n    tag_32:\n      pop\n        /* \"contracts/FundMe.sol\":844:845  0 */\n      0x00\n        /* \"contracts/FundMe.sol\":830:846  new address[](0) */\n      0xffffffffffffffff\n      dup2\n      gt\n      iszero\n      tag_40\n      jumpi\n      tag_41\n      tag_42\n      jump\t// in\n    tag_41:\n    tag_40:\n      mload(0x40)\n      swap1\n      dup1\n      dup3\n      mstore\n      dup1\n      0x20\n      mul\n      0x20\n      add\n      dup3\n      add\n      0x40\n      mstore\n      dup1\n      iszero\n      tag_43\n      jumpi\n      dup2\n      0x20\n      add\n      0x20\n      dup3\n      mul\n      dup1\n      calldatasize\n      dup4\n      calldatacopy\n      dup1\n      dup3\n      add\n      swap2\n      pop\n      pop\n      swap1\n      pop\n    tag_43:\n      pop\n        /* \"contracts/FundMe.sol\":820:827  funders */\n      0x01\n        /* \"contracts/FundMe.sol\":820:846  funders = new address[](0) */\n      swap1\n      dup1\n      mload\n      swap1\n      0x20\n      add\n      swap1\n      tag_44\n      swap3\n      swap2\n      swap1\n      tag_45\n      jump\t// in\n    tag_44:\n      pop\n        /* \"contracts/FundMe.sol\":877:887  msg.sender */\n      caller\n        /* \"contracts/FundMe.sol\":869:897  payable(msg.sender).transfer */\n      0xffffffffffffffffffffffffffffffffffffffff\n      and\n        /* \"contracts/FundMe.sol\":869:920  payable(msg.sender).transfer(address(this).balance) */\n      0x08fc\n        /* \"contracts/FundMe.sol\":898:919  address(this).balance */\n      selfbalance\n        /* \"contracts/FundMe.sol\":869:920  payable(msg.sender).transfer(address(this).balance) */\n      swap1\n      dup2\n      iszero\n      mul\n      swap1\n      mload(0x40)\n      0x00\n      mload(0x40)\n      dup1\n      dup4\n      sub\n      dup2\n      dup6\n      dup9\n      dup9\n      call\n      swap4\n      pop\n      pop\n      pop\n      pop\n      iszero\n      dup1\n      iszero\n      tag_47\n      jumpi\n      returndatasize\n      0x00\n      dup1\n      returndatacopy\n      revert(0x00, returndatasize)\n    tag_47:\n      pop\n        /* \"contracts/FundMe.sol\":939:955  bool sendSuccess */\n      0x00\n        /* \"contracts/FundMe.sol\":966:976  msg.sender */\n      caller\n        /* \"contracts/FundMe.sol\":958:982  payable(msg.sender).send */\n      0xffffffffffffffffffffffffffffffffffffffff\n      and\n        /* \"contracts/FundMe.sol\":958:1005  payable(msg.sender).send(address(this).balance) */\n      0x08fc\n        /* \"contracts/FundMe.sol\":983:1004  address(this).balance */\n      selfbalance\n        /* \"contracts/FundMe.sol\":958:1005  payable(msg.sender).send(address(this).balance) */\n      swap1\n      dup2\n      iszero\n      mul\n      swap1\n      mload(0x40)\n      0x00\n      mload(0x40)\n      dup1\n      dup4\n      sub\n      dup2\n      dup6\n      dup9\n      dup9\n      call\n      swap4\n      pop\n      pop\n      pop\n      pop\n        /* \"contracts/FundMe.sol\":939:1005  bool sendSuccess = payable(msg.sender).send(address(this).balance) */\n      swap1\n      pop\n        /* \"contracts/FundMe.sol\":1020:1031  sendSuccess */\n      dup1\n        /* \"contracts/FundMe.sol\":1012:1047  require(sendSuccess, \"Send Failed\") */\n      tag_49\n      jumpi\n      mload(0x40)\n      0x08c379a000000000000000000000000000000000000000000000000000000000\n      dup2\n      mstore\n      0x04\n      add\n      tag_50\n      swap1\n      tag_51\n      jump\t// in\n    tag_50:\n      mload(0x40)\n      dup1\n      swap2\n      sub\n      swap1\n      revert\n    tag_49:\n        /* \"contracts/FundMe.sol\":1067:1083  bool callSuccess */\n      0x00\n        /* \"contracts/FundMe.sol\":1096:1106  msg.sender */\n      caller\n        /* \"contracts/FundMe.sol\":1088:1112  payable(msg.sender).call */\n      0xffffffffffffffffffffffffffffffffffffffff\n      and\n        /* \"contracts/FundMe.sol\":1120:1141  address(this).balance */\n      selfbalance\n        /* \"contracts/FundMe.sol\":1088:1146  payable(msg.sender).call{value: address(this).balance}(\"\") */\n      mload(0x40)\n      tag_52\n      swap1\n      tag_53\n      jump\t// in\n    tag_52:\n      0x00\n      mload(0x40)\n      dup1\n      dup4\n      sub\n      dup2\n      dup6\n      dup8\n      gas\n      call\n      swap3\n      pop\n      pop\n      pop\n      returndatasize\n      dup1\n      0x00\n      dup2\n      eq\n      tag_56\n      jumpi\n      mload(0x40)\n      swap2\n      pop\n      and(add(returndatasize, 0x3f), not(0x1f))\n      dup3\n      add\n      0x40\n      mstore\n      returndatasize\n      dup3\n      mstore\n      returndatasize\n      0x00\n      0x20\n      dup5\n      add\n      returndatacopy\n      jump(tag_55)\n    tag_56:\n      0x60\n      swap2\n      pop\n    tag_55:\n      pop\n        /* \"contracts/FundMe.sol\":1066:1146  (bool callSuccess,) = payable(msg.sender).call{value: address(this).balance}(\"\") */\n      pop\n      swap1\n      pop\n        /* \"contracts/FundMe.sol\":1161:1172  callSuccess */\n      dup1\n        /* \"contracts/FundMe.sol\":1153:1188  require(callSuccess, \"Call Failed\") */\n      tag_57\n      jumpi\n      mload(0x40)\n      0x08c379a000000000000000000000000000000000000000000000000000000000\n      dup2\n      mstore\n      0x04\n      add\n      tag_58\n      swap1\n      tag_59\n      jump\t// in\n    tag_58:\n      mload(0x40)\n      dup1\n      swap2\n      sub\n      swap1\n      revert\n    tag_57:\n        /* \"contracts/FundMe.sol\":636:1192  {... */\n      pop\n      pop\n        /* \"contracts/FundMe.sol\":609:1192  function withdraw() public {... */\n      jump\t// out\n        /* \"contracts/FundMe.sol\":225:281  mapping(address => uint256) public addressToAmountFunded */\n    tag_19:\n      mstore(0x20, 0x02)\n      dup1\n      0x00\n      mstore\n      keccak256(0x00, 0x40)\n      0x00\n      swap2\n      pop\n      swap1\n      pop\n      sload\n      dup2\n      jump\t// out\n        /* \"contracts/FundMe.sol\":285:606  function fund() public payable {... */\n    tag_22:\n        /* \"contracts/FundMe.sol\":396:406  minimumUsd */\n      sload(0x00)\n        /* \"contracts/FundMe.sol\":364:393  msg.value.getConversionRate() */\n      tag_61\n        /* \"contracts/FundMe.sol\":364:373  msg.value */\n      callvalue\n        /* \"contracts/FundMe.sol\":364:391  msg.value.getConversionRate */\n      tag_62\n        /* \"contracts/FundMe.sol\":364:393  msg.value.getConversionRate() */\n      jump\t// in\n    tag_61:\n        /* \"contracts/FundMe.sol\":364:406  msg.value.getConversionRate() > minimumUsd */\n      gt\n        /* \"contracts/FundMe.sol\":356:429  require(msg.value.getConversionRate() > minimumUsd, \"Didn't send enough\") */\n      tag_63\n      jumpi\n      mload(0x40)\n      0x08c379a000000000000000000000000000000000000000000000000000000000\n      dup2\n      mstore\n      0x04\n      add\n      tag_64\n      swap1\n      tag_65\n      jump\t// in\n    tag_64:\n      mload(0x40)\n      dup1\n      swap2\n      sub\n      swap1\n      revert\n    tag_63:\n        /* \"contracts/FundMe.sol\":524:531  funders */\n      0x01\n        /* \"contracts/FundMe.sol\":537:547  msg.sender */\n      caller\n        /* \"contracts/FundMe.sol\":524:548  funders.push(msg.sender) */\n      swap1\n      dup1\n      0x01\n      dup2\n      sload\n      add\n      dup1\n      dup3\n      sstore\n      dup1\n      swap2\n      pop\n      pop\n      0x01\n      swap1\n      sub\n      swap1\n      0x00\n      mstore\n      keccak256(0x00, 0x20)\n      add\n      0x00\n      swap1\n      swap2\n      swap1\n      swap2\n      swap1\n      swap2\n      0x0100\n      exp\n      dup2\n      sload\n      dup2\n      0xffffffffffffffffffffffffffffffffffffffff\n      mul\n      not\n      and\n      swap1\n      dup4\n      0xffffffffffffffffffffffffffffffffffffffff\n      and\n      mul\n      or\n      swap1\n      sstore\n      pop\n        /* \"contracts/FundMe.sol\":592:601  msg.value */\n      callvalue\n        /* \"contracts/FundMe.sol\":555:576  addressToAmountFunded */\n      0x02\n        /* \"contracts/FundMe.sol\":555:588  addressToAmountFunded[msg.sender] */\n      0x00\n        /* \"contracts/FundMe.sol\":577:587  msg.sender */\n      caller\n        /* \"contracts/FundMe.sol\":555:588  addressToAmountFunded[msg.sender] */\n      0xffffffffffffffffffffffffffffffffffffffff\n      and\n      0xffffffffffffffffffffffffffffffffffffffff\n      and\n      dup2\n      mstore\n      0x20\n      add\n      swap1\n      dup2\n      mstore\n      0x20\n      add\n      0x00\n      keccak256\n      0x00\n        /* \"contracts/FundMe.sol\":555:601  addressToAmountFunded[msg.sender] += msg.value */\n      dup3\n      dup3\n      sload\n      tag_67\n      swap2\n      swap1\n      tag_68\n      jump\t// in\n    tag_67:\n      swap3\n      pop\n      pop\n      dup2\n      swap1\n      sstore\n      pop\n        /* \"contracts/FundMe.sol\":285:606  function fund() public payable {... */\n      jump\t// out\n        /* \"contracts/FundMe.sol\":195:219  address[] public funders */\n    tag_27:\n      0x01\n      dup2\n      dup2\n      sload\n      dup2\n      lt\n      tag_69\n      jumpi\n      0x00\n      dup1\n      revert\n    tag_69:\n      swap1\n      0x00\n      mstore\n      keccak256(0x00, 0x20)\n      add\n      0x00\n      swap2\n      pop\n      sload\n      swap1\n      0x0100\n      exp\n      swap1\n      div\n      0xffffffffffffffffffffffffffffffffffffffff\n      and\n      dup2\n      jump\t// out\n        /* \"contracts/PriceConverter.sol\":673:876  function getConversionRate(uint256 ethAmount) internal view returns (uint256) {... */\n    tag_62:\n        /* \"contracts/PriceConverter.sol\":742:749  uint256 */\n      0x00\n        /* \"contracts/PriceConverter.sol\":758:774  uint256 ethPrice */\n      dup1\n        /* \"contracts/PriceConverter.sol\":777:787  getPrice() */\n      tag_72\n        /* \"contracts/PriceConverter.sol\":777:785  getPrice */\n      tag_73\n        /* \"contracts/PriceConverter.sol\":777:787  getPrice() */\n      jump\t// in\n    tag_72:\n        /* \"contracts/PriceConverter.sol\":758:787  uint256 ethPrice = getPrice() */\n      swap1\n      pop\n        /* \"contracts/PriceConverter.sol\":794:814  uint256 ethAmountUsd */\n      0x00\n        /* \"contracts/PriceConverter.sol\":842:846  1e18 */\n      0x0de0b6b3a7640000\n        /* \"contracts/PriceConverter.sol\":830:838  ethPrice */\n      dup3\n        /* \"contracts/PriceConverter.sol\":818:827  ethAmount */\n      dup6\n        /* \"contracts/PriceConverter.sol\":818:838  ethAmount * ethPrice */\n      tag_74\n      swap2\n      swap1\n      tag_75\n      jump\t// in\n    tag_74:\n        /* \"contracts/PriceConverter.sol\":817:846  (ethAmount * ethPrice) / 1e18 */\n      tag_76\n      swap2\n      swap1\n      tag_77\n      jump\t// in\n    tag_76:\n        /* \"contracts/PriceConverter.sol\":794:846  uint256 ethAmountUsd = (ethAmount * ethPrice) / 1e18 */\n      swap1\n      pop\n        /* \"contracts/PriceConverter.sol\":860:872  ethAmountUsd */\n      dup1\n        /* \"contracts/PriceConverter.sol\":853:872  return ethAmountUsd */\n      swap3\n      pop\n      pop\n      pop\n        /* \"contracts/PriceConverter.sol\":673:876  function getConversionRate(uint256 ethAmount) internal view returns (uint256) {... */\n      swap2\n      swap1\n      pop\n      jump\t// out\n        /* \"contracts/PriceConverter.sol\":166:470  function getPrice() internal view returns(uint256) {... */\n    tag_73:\n        /* \"contracts/PriceConverter.sol\":208:215  uint256 */\n      0x00\n        /* \"contracts/PriceConverter.sol\":275:306  AggregatorV3Interface priceFeed */\n      dup1\n        /* \"contracts/PriceConverter.sol\":331:373  0x8A753747A1Fa494EC906cE90E9f37563A8AF630e */\n      0x8a753747a1fa494ec906ce90e9f37563a8af630e\n        /* \"contracts/PriceConverter.sol\":275:374  AggregatorV3Interface priceFeed = AggregatorV3Interface(0x8A753747A1Fa494EC906cE90E9f37563A8AF630e) */\n      swap1\n      pop\n        /* \"contracts/PriceConverter.sol\":384:396  int256 price */\n      0x00\n        /* \"contracts/PriceConverter.sol\":403:412  priceFeed */\n      dup2\n        /* \"contracts/PriceConverter.sol\":403:428  priceFeed.latestRoundData */\n      0xffffffffffffffffffffffffffffffffffffffff\n      and\n      0xfeaf968c\n        /* \"contracts/PriceConverter.sol\":403:430  priceFeed.latestRoundData() */\n      mload(0x40)\n      dup2\n      0xffffffff\n      and\n      0xe0\n      shl\n      dup2\n      mstore\n      0x04\n      add\n      0xa0\n      mload(0x40)\n      dup1\n      dup4\n      sub\n      dup2\n      dup7\n      dup1\n      extcodesize\n      iszero\n      dup1\n      iszero\n      tag_79\n      jumpi\n      0x00\n      dup1\n      revert\n    tag_79:\n      pop\n      gas\n      staticcall\n      iszero\n      dup1\n      iszero\n      tag_81\n      jumpi\n      returndatasize\n      0x00\n      dup1\n      returndatacopy\n      revert(0x00, returndatasize)\n    tag_81:\n      pop\n      pop\n      pop\n      pop\n      mload(0x40)\n      returndatasize\n      not(0x1f)\n      0x1f\n      dup3\n      add\n      and\n      dup3\n      add\n      dup1\n      0x40\n      mstore\n      pop\n      dup2\n      add\n      swap1\n      tag_82\n      swap2\n      swap1\n      tag_83\n      jump\t// in\n    tag_82:\n        /* \"contracts/PriceConverter.sol\":381:430  (, int256 price,,,) = priceFeed.latestRoundData() */\n      pop\n      pop\n      pop\n      swap2\n      pop\n      pop\n        /* \"contracts/PriceConverter.sol\":461:465  1e10 */\n      0x02540be400\n        /* \"contracts/PriceConverter.sol\":453:458  price */\n      dup2\n        /* \"contracts/PriceConverter.sol\":453:465  price * 1e10 */\n      tag_84\n      swap2\n      swap1\n      tag_85\n      jump\t// in\n    tag_84:\n        /* \"contracts/PriceConverter.sol\":438:466  return uint256(price * 1e10) */\n      swap3\n      pop\n      pop\n      pop\n        /* \"contracts/PriceConverter.sol\":166:470  function getPrice() internal view returns(uint256) {... */\n      swap1\n      jump\t// out\n    tag_45:\n      dup3\n      dup1\n      sload\n      dup3\n      dup3\n      sstore\n      swap1\n      0x00\n      mstore\n      keccak256(0x00, 0x20)\n      swap1\n      dup2\n      add\n      swap3\n      dup3\n      iszero\n      tag_86\n      jumpi\n      swap2\n      0x20\n      mul\n      dup3\n      add\n    tag_87:\n      dup3\n      dup2\n      gt\n      iszero\n      tag_88\n      jumpi\n      dup3\n      mload\n      dup3\n      exp(0x0100, 0x00)\n      dup2\n      sload\n      dup2\n      0xffffffffffffffffffffffffffffffffffffffff\n      mul\n      not\n      and\n      swap1\n      dup4\n      0xffffffffffffffffffffffffffffffffffffffff\n      and\n      mul\n      or\n      swap1\n      sstore\n      pop\n      swap2\n      0x20\n      add\n      swap2\n      swap1\n      0x01\n      add\n      swap1\n      jump(tag_87)\n    tag_88:\n    tag_86:\n      pop\n      swap1\n      pop\n      tag_89\n      swap2\n      swap1\n      tag_90\n      jump\t// in\n    tag_89:\n      pop\n      swap1\n      jump\t// out\n    tag_90:\n    tag_91:\n      dup1\n      dup3\n      gt\n      iszero\n      tag_92\n      jumpi\n      0x00\n      dup2\n      0x00\n      swap1\n      sstore\n      pop\n      0x01\n      add\n      jump(tag_91)\n    tag_92:\n      pop\n      swap1\n      jump\t// out\n        /* \"#utility.yul\":7:146   */\n    tag_94:\n        /* \"#utility.yul\":53:58   */\n      0x00\n        /* \"#utility.yul\":91:97   */\n      dup2\n        /* \"#utility.yul\":78:98   */\n      calldataload\n        /* \"#utility.yul\":69:98   */\n      swap1\n      pop\n        /* \"#utility.yul\":107:140   */\n      tag_96\n        /* \"#utility.yul\":134:139   */\n      dup2\n        /* \"#utility.yul\":107:140   */\n      tag_97\n      jump\t// in\n    tag_96:\n        /* \"#utility.yul\":7:146   */\n      swap3\n      swap2\n      pop\n      pop\n      jump\t// out\n        /* \"#utility.yul\":152:293   */\n    tag_98:\n        /* \"#utility.yul\":208:213   */\n      0x00\n        /* \"#utility.yul\":239:245   */\n      dup2\n        /* \"#utility.yul\":233:246   */\n      mload\n        /* \"#utility.yul\":224:246   */\n      swap1\n      pop\n        /* \"#utility.yul\":255:287   */\n      tag_100\n        /* \"#utility.yul\":281:286   */\n      dup2\n        /* \"#utility.yul\":255:287   */\n      tag_101\n      jump\t// in\n    tag_100:\n        /* \"#utility.yul\":152:293   */\n      swap3\n      swap2\n      pop\n      pop\n      jump\t// out\n        /* \"#utility.yul\":299:438   */\n    tag_102:\n        /* \"#utility.yul\":345:350   */\n      0x00\n        /* \"#utility.yul\":383:389   */\n      dup2\n        /* \"#utility.yul\":370:390   */\n      calldataload\n        /* \"#utility.yul\":361:390   */\n      swap1\n      pop\n        /* \"#utility.yul\":399:432   */\n      tag_104\n        /* \"#utility.yul\":426:431   */\n      dup2\n        /* \"#utility.yul\":399:432   */\n      tag_105\n      jump\t// in\n    tag_104:\n        /* \"#utility.yul\":299:438   */\n      swap3\n      swap2\n      pop\n      pop\n      jump\t// out\n        /* \"#utility.yul\":444:587   */\n    tag_106:\n        /* \"#utility.yul\":501:506   */\n      0x00\n        /* \"#utility.yul\":532:538   */\n      dup2\n        /* \"#utility.yul\":526:539   */\n      mload\n        /* \"#utility.yul\":517:539   */\n      swap1\n      pop\n        /* \"#utility.yul\":548:581   */\n      tag_108\n        /* \"#utility.yul\":575:580   */\n      dup2\n        /* \"#utility.yul\":548:581   */\n      tag_105\n      jump\t// in\n    tag_108:\n        /* \"#utility.yul\":444:587   */\n      swap3\n      swap2\n      pop\n      pop\n      jump\t// out\n        /* \"#utility.yul\":593:734   */\n    tag_109:\n        /* \"#utility.yul\":649:654   */\n      0x00\n        /* \"#utility.yul\":680:686   */\n      dup2\n        /* \"#utility.yul\":674:687   */\n      mload\n        /* \"#utility.yul\":665:687   */\n      swap1\n      pop\n        /* \"#utility.yul\":696:728   */\n      tag_111\n        /* \"#utility.yul\":722:727   */\n      dup2\n        /* \"#utility.yul\":696:728   */\n      tag_112\n      jump\t// in\n    tag_111:\n        /* \"#utility.yul\":593:734   */\n      swap3\n      swap2\n      pop\n      pop\n      jump\t// out\n        /* \"#utility.yul\":740:1069   */\n    tag_18:\n        /* \"#utility.yul\":799:805   */\n      0x00\n        /* \"#utility.yul\":848:850   */\n      0x20\n        /* \"#utility.yul\":836:845   */\n      dup3\n        /* \"#utility.yul\":827:834   */\n      dup5\n        /* \"#utility.yul\":823:846   */\n      sub\n        /* \"#utility.yul\":819:851   */\n      slt\n        /* \"#utility.yul\":816:935   */\n      iszero\n      tag_114\n      jumpi\n        /* \"#utility.yul\":854:933   */\n      tag_115\n      tag_116\n      jump\t// in\n    tag_115:\n        /* \"#utility.yul\":816:935   */\n    tag_114:\n        /* \"#utility.yul\":974:975   */\n      0x00\n        /* \"#utility.yul\":999:1052   */\n      tag_117\n        /* \"#utility.yul\":1044:1051   */\n      dup5\n        /* \"#utility.yul\":1035:1041   */\n      dup3\n        /* \"#utility.yul\":1024:1033   */\n      dup6\n        /* \"#utility.yul\":1020:1042   */\n      add\n        /* \"#utility.yul\":999:1052   */\n      tag_94\n      jump\t// in\n    tag_117:\n        /* \"#utility.yul\":989:1052   */\n      swap2\n      pop\n        /* \"#utility.yul\":945:1062   */\n      pop\n        /* \"#utility.yul\":740:1069   */\n      swap3\n      swap2\n      pop\n      pop\n      jump\t// out\n        /* \"#utility.yul\":1075:1404   */\n    tag_26:\n        /* \"#utility.yul\":1134:1140   */\n      0x00\n        /* \"#utility.yul\":1183:1185   */\n      0x20\n        /* \"#utility.yul\":1171:1180   */\n      dup3\n        /* \"#utility.yul\":1162:1169   */\n      dup5\n        /* \"#utility.yul\":1158:1181   */\n      sub\n        /* \"#utility.yul\":1154:1186   */\n      slt\n        /* \"#utility.yul\":1151:1270   */\n      iszero\n      tag_119\n      jumpi\n        /* \"#utility.yul\":1189:1268   */\n      tag_120\n      tag_116\n      jump\t// in\n    tag_120:\n        /* \"#utility.yul\":1151:1270   */\n    tag_119:\n        /* \"#utility.yul\":1309:1310   */\n      0x00\n        /* \"#utility.yul\":1334:1387   */\n      tag_121\n        /* \"#utility.yul\":1379:1386   */\n      dup5\n        /* \"#utility.yul\":1370:1376   */\n      dup3\n        /* \"#utility.yul\":1359:1368   */\n      dup6\n        /* \"#utility.yul\":1355:1377   */\n      add\n        /* \"#utility.yul\":1334:1387   */\n      tag_102\n      jump\t// in\n    tag_121:\n        /* \"#utility.yul\":1324:1387   */\n      swap2\n      pop\n        /* \"#utility.yul\":1280:1397   */\n      pop\n        /* \"#utility.yul\":1075:1404   */\n      swap3\n      swap2\n      pop\n      pop\n      jump\t// out\n        /* \"#utility.yul\":1410:2381   */\n    tag_83:\n        /* \"#utility.yul\":1513:1519   */\n      0x00\n        /* \"#utility.yul\":1521:1527   */\n      dup1\n        /* \"#utility.yul\":1529:1535   */\n      0x00\n        /* \"#utility.yul\":1537:1543   */\n      dup1\n        /* \"#utility.yul\":1545:1551   */\n      0x00\n        /* \"#utility.yul\":1594:1597   */\n      0xa0\n        /* \"#utility.yul\":1582:1591   */\n      dup7\n        /* \"#utility.yul\":1573:1580   */\n      dup9\n        /* \"#utility.yul\":1569:1592   */\n      sub\n        /* \"#utility.yul\":1565:1598   */\n      slt\n        /* \"#utility.yul\":1562:1682   */\n      iszero\n      tag_123\n      jumpi\n        /* \"#utility.yul\":1601:1680   */\n      tag_124\n      tag_116\n      jump\t// in\n    tag_124:\n        /* \"#utility.yul\":1562:1682   */\n    tag_123:\n        /* \"#utility.yul\":1721:1722   */\n      0x00\n        /* \"#utility.yul\":1746:1809   */\n      tag_125\n        /* \"#utility.yul\":1801:1808   */\n      dup9\n        /* \"#utility.yul\":1792:1798   */\n      dup3\n        /* \"#utility.yul\":1781:1790   */\n      dup10\n        /* \"#utility.yul\":1777:1799   */\n      add\n        /* \"#utility.yul\":1746:1809   */\n      tag_109\n      jump\t// in\n    tag_125:\n        /* \"#utility.yul\":1736:1809   */\n      swap6\n      pop\n        /* \"#utility.yul\":1692:1819   */\n      pop\n        /* \"#utility.yul\":1858:1860   */\n      0x20\n        /* \"#utility.yul\":1884:1947   */\n      tag_126\n        /* \"#utility.yul\":1939:1946   */\n      dup9\n        /* \"#utility.yul\":1930:1936   */\n      dup3\n        /* \"#utility.yul\":1919:1928   */\n      dup10\n        /* \"#utility.yul\":1915:1937   */\n      add\n        /* \"#utility.yul\":1884:1947   */\n      tag_98\n      jump\t// in\n    tag_126:\n        /* \"#utility.yul\":1874:1947   */\n      swap5\n      pop\n        /* \"#utility.yul\":1829:1957   */\n      pop\n        /* \"#utility.yul\":1996:1998   */\n      0x40\n        /* \"#utility.yul\":2022:2086   */\n      tag_127\n        /* \"#utility.yul\":2078:2085   */\n      dup9\n        /* \"#utility.yul\":2069:2075   */\n      dup3\n        /* \"#utility.yul\":2058:2067   */\n      dup10\n        /* \"#utility.yul\":2054:2076   */\n      add\n        /* \"#utility.yul\":2022:2086   */\n      tag_106\n      jump\t// in\n    tag_127:\n        /* \"#utility.yul\":2012:2086   */\n      swap4\n      pop\n        /* \"#utility.yul\":1967:2096   */\n      pop\n        /* \"#utility.yul\":2135:2137   */\n      0x60\n        /* \"#utility.yul\":2161:2225   */\n      tag_128\n        /* \"#utility.yul\":2217:2224   */\n      dup9\n        /* \"#utility.yul\":2208:2214   */\n      dup3\n        /* \"#utility.yul\":2197:2206   */\n      dup10\n        /* \"#utility.yul\":2193:2215   */\n      add\n        /* \"#utility.yul\":2161:2225   */\n      tag_106\n      jump\t// in\n    tag_128:\n        /* \"#utility.yul\":2151:2225   */\n      swap3\n      pop\n        /* \"#utility.yul\":2106:2235   */\n      pop\n        /* \"#utility.yul\":2274:2277   */\n      0x80\n        /* \"#utility.yul\":2301:2364   */\n      tag_129\n        /* \"#utility.yul\":2356:2363   */\n      dup9\n        /* \"#utility.yul\":2347:2353   */\n      dup3\n        /* \"#utility.yul\":2336:2345   */\n      dup10\n        /* \"#utility.yul\":2332:2354   */\n      add\n        /* \"#utility.yul\":2301:2364   */\n      tag_109\n      jump\t// in\n    tag_129:\n        /* \"#utility.yul\":2291:2364   */\n      swap2\n      pop\n        /* \"#utility.yul\":2245:2374   */\n      pop\n        /* \"#utility.yul\":1410:2381   */\n      swap3\n      swap6\n      pop\n      swap3\n      swap6\n      swap1\n      swap4\n      pop\n      jump\t// out\n        /* \"#utility.yul\":2387:2505   */\n    tag_130:\n        /* \"#utility.yul\":2474:2498   */\n      tag_132\n        /* \"#utility.yul\":2492:2497   */\n      dup2\n        /* \"#utility.yul\":2474:2498   */\n      tag_133\n      jump\t// in\n    tag_132:\n        /* \"#utility.yul\":2469:2472   */\n      dup3\n        /* \"#utility.yul\":2462:2499   */\n      mstore\n        /* \"#utility.yul\":2387:2505   */\n      pop\n      pop\n      jump\t// out\n        /* \"#utility.yul\":2511:2877   */\n    tag_134:\n        /* \"#utility.yul\":2653:2656   */\n      0x00\n        /* \"#utility.yul\":2674:2741   */\n      tag_136\n        /* \"#utility.yul\":2738:2740   */\n      0x12\n        /* \"#utility.yul\":2733:2736   */\n      dup4\n        /* \"#utility.yul\":2674:2741   */\n      tag_137\n      jump\t// in\n    tag_136:\n        /* \"#utility.yul\":2667:2741   */\n      swap2\n      pop\n        /* \"#utility.yul\":2750:2843   */\n      tag_138\n        /* \"#utility.yul\":2839:2842   */\n      dup3\n        /* \"#utility.yul\":2750:2843   */\n      tag_139\n      jump\t// in\n    tag_138:\n        /* \"#utility.yul\":2868:2870   */\n      0x20\n        /* \"#utility.yul\":2863:2866   */\n      dup3\n        /* \"#utility.yul\":2859:2871   */\n      add\n        /* \"#utility.yul\":2852:2871   */\n      swap1\n      pop\n        /* \"#utility.yul\":2511:2877   */\n      swap2\n      swap1\n      pop\n      jump\t// out\n        /* \"#utility.yul\":2883:3249   */\n    tag_140:\n        /* \"#utility.yul\":3025:3028   */\n      0x00\n        /* \"#utility.yul\":3046:3113   */\n      tag_142\n        /* \"#utility.yul\":3110:3112   */\n      0x0b\n        /* \"#utility.yul\":3105:3108   */\n      dup4\n        /* \"#utility.yul\":3046:3113   */\n      tag_137\n      jump\t// in\n    tag_142:\n        /* \"#utility.yul\":3039:3113   */\n      swap2\n      pop\n        /* \"#utility.yul\":3122:3215   */\n      tag_143\n        /* \"#utility.yul\":3211:3214   */\n      dup3\n        /* \"#utility.yul\":3122:3215   */\n      tag_144\n      jump\t// in\n    tag_143:\n        /* \"#utility.yul\":3240:3242   */\n      0x20\n        /* \"#utility.yul\":3235:3238   */\n      dup3\n        /* \"#utility.yul\":3231:3243   */\n      add\n        /* \"#utility.yul\":3224:3243   */\n      swap1\n      pop\n        /* \"#utility.yul\":2883:3249   */\n      swap2\n      swap1\n      pop\n      jump\t// out\n        /* \"#utility.yul\":3255:3653   */\n    tag_145:\n        /* \"#utility.yul\":3414:3417   */\n      0x00\n        /* \"#utility.yul\":3435:3518   */\n      tag_147\n        /* \"#utility.yul\":3516:3517   */\n      0x00\n        /* \"#utility.yul\":3511:3514   */\n      dup4\n        /* \"#utility.yul\":3435:3518   */\n      tag_148\n      jump\t// in\n    tag_147:\n        /* \"#utility.yul\":3428:3518   */\n      swap2\n      pop\n        /* \"#utility.yul\":3527:3620   */\n      tag_149\n        /* \"#utility.yul\":3616:3619   */\n      dup3\n        /* \"#utility.yul\":3527:3620   */\n      tag_150\n      jump\t// in\n    tag_149:\n        /* \"#utility.yul\":3645:3646   */\n      0x00\n        /* \"#utility.yul\":3640:3643   */\n      dup3\n        /* \"#utility.yul\":3636:3647   */\n      add\n        /* \"#utility.yul\":3629:3647   */\n      swap1\n      pop\n        /* \"#utility.yul\":3255:3653   */\n      swap2\n      swap1\n      pop\n      jump\t// out\n        /* \"#utility.yul\":3659:4025   */\n    tag_151:\n        /* \"#utility.yul\":3801:3804   */\n      0x00\n        /* \"#utility.yul\":3822:3889   */\n      tag_153\n        /* \"#utility.yul\":3886:3888   */\n      0x0b\n        /* \"#utility.yul\":3881:3884   */\n      dup4\n        /* \"#utility.yul\":3822:3889   */\n      tag_137\n      jump\t// in\n    tag_153:\n        /* \"#utility.yul\":3815:3889   */\n      swap2\n      pop\n        /* \"#utility.yul\":3898:3991   */\n      tag_154\n        /* \"#utility.yul\":3987:3990   */\n      dup3\n        /* \"#utility.yul\":3898:3991   */\n      tag_155\n      jump\t// in\n    tag_154:\n        /* \"#utility.yul\":4016:4018   */\n      0x20\n        /* \"#utility.yul\":4011:4014   */\n      dup3\n        /* \"#utility.yul\":4007:4019   */\n      add\n        /* \"#utility.yul\":4000:4019   */\n      swap1\n      pop\n        /* \"#utility.yul\":3659:4025   */\n      swap2\n      swap1\n      pop\n      jump\t// out\n        /* \"#utility.yul\":4031:4149   */\n    tag_156:\n        /* \"#utility.yul\":4118:4142   */\n      tag_158\n        /* \"#utility.yul\":4136:4141   */\n      dup2\n        /* \"#utility.yul\":4118:4142   */\n      tag_159\n      jump\t// in\n    tag_158:\n        /* \"#utility.yul\":4113:4116   */\n      dup3\n        /* \"#utility.yul\":4106:4143   */\n      mstore\n        /* \"#utility.yul\":4031:4149   */\n      pop\n      pop\n      jump\t// out\n        /* \"#utility.yul\":4155:4534   */\n    tag_53:\n        /* \"#utility.yul\":4339:4342   */\n      0x00\n        /* \"#utility.yul\":4361:4508   */\n      tag_161\n        /* \"#utility.yul\":4504:4507   */\n      dup3\n        /* \"#utility.yul\":4361:4508   */\n      tag_145\n      jump\t// in\n    tag_161:\n        /* \"#utility.yul\":4354:4508   */\n      swap2\n      pop\n        /* \"#utility.yul\":4525:4528   */\n      dup2\n        /* \"#utility.yul\":4518:4528   */\n      swap1\n      pop\n        /* \"#utility.yul\":4155:4534   */\n      swap2\n      swap1\n      pop\n      jump\t// out\n        /* \"#utility.yul\":4540:4762   */\n    tag_29:\n        /* \"#utility.yul\":4633:4637   */\n      0x00\n        /* \"#utility.yul\":4671:4673   */\n      0x20\n        /* \"#utility.yul\":4660:4669   */\n      dup3\n        /* \"#utility.yul\":4656:4674   */\n      add\n        /* \"#utility.yul\":4648:4674   */\n      swap1\n      pop\n        /* \"#utility.yul\":4684:4755   */\n      tag_163\n        /* \"#utility.yul\":4752:4753   */\n      0x00\n        /* \"#utility.yul\":4741:4750   */\n      dup4\n        /* \"#utility.yul\":4737:4754   */\n      add\n        /* \"#utility.yul\":4728:4734   */\n      dup5\n        /* \"#utility.yul\":4684:4755   */\n      tag_130\n      jump\t// in\n    tag_163:\n        /* \"#utility.yul\":4540:4762   */\n      swap3\n      swap2\n      pop\n      pop\n      jump\t// out\n        /* \"#utility.yul\":4768:5187   */\n    tag_65:\n        /* \"#utility.yul\":4934:4938   */\n      0x00\n        /* \"#utility.yul\":4972:4974   */\n      0x20\n        /* \"#utility.yul\":4961:4970   */\n      dup3\n        /* \"#utility.yul\":4957:4975   */\n      add\n        /* \"#utility.yul\":4949:4975   */\n      swap1\n      pop\n        /* \"#utility.yul\":5021:5030   */\n      dup2\n        /* \"#utility.yul\":5015:5019   */\n      dup2\n        /* \"#utility.yul\":5011:5031   */\n      sub\n        /* \"#utility.yul\":5007:5008   */\n      0x00\n        /* \"#utility.yul\":4996:5005   */\n      dup4\n        /* \"#utility.yul\":4992:5009   */\n      add\n        /* \"#utility.yul\":4985:5032   */\n      mstore\n        /* \"#utility.yul\":5049:5180   */\n      tag_165\n        /* \"#utility.yul\":5175:5179   */\n      dup2\n        /* \"#utility.yul\":5049:5180   */\n      tag_134\n      jump\t// in\n    tag_165:\n        /* \"#utility.yul\":5041:5180   */\n      swap1\n      pop\n        /* \"#utility.yul\":4768:5187   */\n      swap2\n      swap1\n      pop\n      jump\t// out\n        /* \"#utility.yul\":5193:5612   */\n    tag_51:\n        /* \"#utility.yul\":5359:5363   */\n      0x00\n        /* \"#utility.yul\":5397:5399   */\n      0x20\n        /* \"#utility.yul\":5386:5395   */\n      dup3\n        /* \"#utility.yul\":5382:5400   */\n      add\n        /* \"#utility.yul\":5374:5400   */\n      swap1\n      pop\n        /* \"#utility.yul\":5446:5455   */\n      dup2\n        /* \"#utility.yul\":5440:5444   */\n      dup2\n        /* \"#utility.yul\":5436:5456   */\n      sub\n        /* \"#utility.yul\":5432:5433   */\n      0x00\n        /* \"#utility.yul\":5421:5430   */\n      dup4\n        /* \"#utility.yul\":5417:5434   */\n      add\n        /* \"#utility.yul\":5410:5457   */\n      mstore\n        /* \"#utility.yul\":5474:5605   */\n      tag_167\n        /* \"#utility.yul\":5600:5604   */\n      dup2\n        /* \"#utility.yul\":5474:5605   */\n      tag_140\n      jump\t// in\n    tag_167:\n        /* \"#utility.yul\":5466:5605   */\n      swap1\n      pop\n        /* \"#utility.yul\":5193:5612   */\n      swap2\n      swap1\n      pop\n      jump\t// out\n        /* \"#utility.yul\":5618:6037   */\n    tag_59:\n        /* \"#utility.yul\":5784:5788   */\n      0x00\n        /* \"#utility.yul\":5822:5824   */\n      0x20\n        /* \"#utility.yul\":5811:5820   */\n      dup3\n        /* \"#utility.yul\":5807:5825   */\n      add\n        /* \"#utility.yul\":5799:5825   */\n      swap1\n      pop\n        /* \"#utility.yul\":5871:5880   */\n      dup2\n        /* \"#utility.yul\":5865:5869   */\n      dup2\n        /* \"#utility.yul\":5861:5881   */\n      sub\n        /* \"#utility.yul\":5857:5858   */\n      0x00\n        /* \"#utility.yul\":5846:5855   */\n      dup4\n        /* \"#utility.yul\":5842:5859   */\n      add\n        /* \"#utility.yul\":5835:5882   */\n      mstore\n        /* \"#utility.yul\":5899:6030   */\n      tag_169\n        /* \"#utility.yul\":6025:6029   */\n      dup2\n        /* \"#utility.yul\":5899:6030   */\n      tag_151\n      jump\t// in\n    tag_169:\n        /* \"#utility.yul\":5891:6030   */\n      swap1\n      pop\n        /* \"#utility.yul\":5618:6037   */\n      swap2\n      swap1\n      pop\n      jump\t// out\n        /* \"#utility.yul\":6043:6265   */\n    tag_11:\n        /* \"#utility.yul\":6136:6140   */\n      0x00\n        /* \"#utility.yul\":6174:6176   */\n      0x20\n        /* \"#utility.yul\":6163:6172   */\n      dup3\n        /* \"#utility.yul\":6159:6177   */\n      add\n        /* \"#utility.yul\":6151:6177   */\n      swap1\n      pop\n        /* \"#utility.yul\":6187:6258   */\n      tag_171\n        /* \"#utility.yul\":6255:6256   */\n      0x00\n        /* \"#utility.yul\":6244:6253   */\n      dup4\n        /* \"#utility.yul\":6240:6257   */\n      add\n        /* \"#utility.yul\":6231:6237   */\n      dup5\n        /* \"#utility.yul\":6187:6258   */\n      tag_156\n      jump\t// in\n    tag_171:\n        /* \"#utility.yul\":6043:6265   */\n      swap3\n      swap2\n      pop\n      pop\n      jump\t// out\n        /* \"#utility.yul\":6352:6499   */\n    tag_148:\n        /* \"#utility.yul\":6453:6464   */\n      0x00\n        /* \"#utility.yul\":6490:6493   */\n      dup2\n        /* \"#utility.yul\":6475:6493   */\n      swap1\n      pop\n        /* \"#utility.yul\":6352:6499   */\n      swap3\n      swap2\n      pop\n      pop\n      jump\t// out\n        /* \"#utility.yul\":6505:6674   */\n    tag_137:\n        /* \"#utility.yul\":6589:6600   */\n      0x00\n        /* \"#utility.yul\":6623:6629   */\n      dup3\n        /* \"#utility.yul\":6618:6621   */\n      dup3\n        /* \"#utility.yul\":6611:6630   */\n      mstore\n        /* \"#utility.yul\":6663:6667   */\n      0x20\n        /* \"#utility.yul\":6658:6661   */\n      dup3\n        /* \"#utility.yul\":6654:6668   */\n      add\n        /* \"#utility.yul\":6639:6668   */\n      swap1\n      pop\n        /* \"#utility.yul\":6505:6674   */\n      swap3\n      swap2\n      pop\n      pop\n      jump\t// out\n        /* \"#utility.yul\":6680:6985   */\n    tag_68:\n        /* \"#utility.yul\":6720:6723   */\n      0x00\n        /* \"#utility.yul\":6739:6759   */\n      tag_177\n        /* \"#utility.yul\":6757:6758   */\n      dup3\n        /* \"#utility.yul\":6739:6759   */\n      tag_159\n      jump\t// in\n    tag_177:\n        /* \"#utility.yul\":6734:6759   */\n      swap2\n      pop\n        /* \"#utility.yul\":6773:6793   */\n      tag_178\n        /* \"#utility.yul\":6791:6792   */\n      dup4\n        /* \"#utility.yul\":6773:6793   */\n      tag_159\n      jump\t// in\n    tag_178:\n        /* \"#utility.yul\":6768:6793   */\n      swap3\n      pop\n        /* \"#utility.yul\":6927:6928   */\n      dup3\n        /* \"#utility.yul\":6859:6925   */\n      0xffffffffffffffffffffffffffffffffffffffffffffffffffffffffffffffff\n        /* \"#utility.yul\":6855:6929   */\n      sub\n        /* \"#utility.yul\":6852:6853   */\n      dup3\n        /* \"#utility.yul\":6849:6930   */\n      gt\n        /* \"#utility.yul\":6846:6953   */\n      iszero\n      tag_179\n      jumpi\n        /* \"#utility.yul\":6933:6951   */\n      tag_180\n      tag_181\n      jump\t// in\n    tag_180:\n        /* \"#utility.yul\":6846:6953   */\n    tag_179:\n        /* \"#utility.yul\":6977:6978   */\n      dup3\n        /* \"#utility.yul\":6974:6975   */\n      dup3\n        /* \"#utility.yul\":6970:6979   */\n      add\n        /* \"#utility.yul\":6963:6979   */\n      swap1\n      pop\n        /* \"#utility.yul\":6680:6985   */\n      swap3\n      swap2\n      pop\n      pop\n      jump\t// out\n        /* \"#utility.yul\":6991:7176   */\n    tag_77:\n        /* \"#utility.yul\":7031:7032   */\n      0x00\n        /* \"#utility.yul\":7048:7068   */\n      tag_183\n        /* \"#utility.yul\":7066:7067   */\n      dup3\n        /* \"#utility.yul\":7048:7068   */\n      tag_159\n      jump\t// in\n    tag_183:\n        /* \"#utility.yul\":7043:7068   */\n      swap2\n      pop\n        /* \"#utility.yul\":7082:7102   */\n      tag_184\n        /* \"#utility.yul\":7100:7101   */\n      dup4\n        /* \"#utility.yul\":7082:7102   */\n      tag_159\n      jump\t// in\n    tag_184:\n        /* \"#utility.yul\":7077:7102   */\n      swap3\n      pop\n        /* \"#utility.yul\":7121:7122   */\n      dup3\n        /* \"#utility.yul\":7111:7146   */\n      tag_185\n      jumpi\n        /* \"#utility.yul\":7126:7144   */\n      tag_186\n      tag_187\n      jump\t// in\n    tag_186:\n        /* \"#utility.yul\":7111:7146   */\n    tag_185:\n        /* \"#utility.yul\":7168:7169   */\n      dup3\n        /* \"#utility.yul\":7165:7166   */\n      dup3\n        /* \"#utility.yul\":7161:7170   */\n      div\n        /* \"#utility.yul\":7156:7170   */\n      swap1\n      pop\n        /* \"#utility.yul\":6991:7176   */\n      swap3\n      swap2\n      pop\n      pop\n      jump\t// out\n        /* \"#utility.yul\":7182:8173   */\n    tag_85:\n        /* \"#utility.yul\":7221:7228   */\n      0x00\n        /* \"#utility.yul\":7244:7263   */\n      tag_189\n        /* \"#utility.yul\":7261:7262   */\n      dup3\n        /* \"#utility.yul\":7244:7263   */\n      tag_190\n      jump\t// in\n    tag_189:\n        /* \"#utility.yul\":7239:7263   */\n      swap2\n      pop\n        /* \"#utility.yul\":7277:7296   */\n      tag_191\n        /* \"#utility.yul\":7294:7295   */\n      dup4\n        /* \"#utility.yul\":7277:7296   */\n      tag_190\n      jump\t// in\n    tag_191:\n        /* \"#utility.yul\":7272:7296   */\n      swap3\n      pop\n        /* \"#utility.yul\":7478:7479   */\n      dup3\n        /* \"#utility.yul\":7410:7476   */\n      0x7fffffffffffffffffffffffffffffffffffffffffffffffffffffffffffffff\n        /* \"#utility.yul\":7406:7480   */\n      div\n        /* \"#utility.yul\":7403:7404   */\n      dup3\n        /* \"#utility.yul\":7400:7481   */\n      gt\n        /* \"#utility.yul\":7395:7396   */\n      0x00\n        /* \"#utility.yul\":7392:7393   */\n      dup5\n        /* \"#utility.yul\":7388:7397   */\n      sgt\n        /* \"#utility.yul\":7384:7385   */\n      0x00\n        /* \"#utility.yul\":7381:7382   */\n      dup5\n        /* \"#utility.yul\":7377:7386   */\n      sgt\n        /* \"#utility.yul\":7373:7398   */\n      and\n        /* \"#utility.yul\":7369:7482   */\n      and\n        /* \"#utility.yul\":7366:7505   */\n      iszero\n      tag_192\n      jumpi\n        /* \"#utility.yul\":7485:7503   */\n      tag_193\n      tag_181\n      jump\t// in\n    tag_193:\n        /* \"#utility.yul\":7366:7505   */\n    tag_192:\n        /* \"#utility.yul\":7689:7690   */\n      dup2\n        /* \"#utility.yul\":7621:7687   */\n      0x8000000000000000000000000000000000000000000000000000000000000000\n        /* \"#utility.yul\":7616:7691   */\n      sdiv\n        /* \"#utility.yul\":7613:7614   */\n      dup4\n        /* \"#utility.yul\":7609:7692   */\n      slt\n        /* \"#utility.yul\":7604:7605   */\n      0x00\n        /* \"#utility.yul\":7601:7602   */\n      dup5\n        /* \"#utility.yul\":7597:7606   */\n      slt\n        /* \"#utility.yul\":7593:7594   */\n      0x00\n        /* \"#utility.yul\":7590:7591   */\n      dup5\n        /* \"#utility.yul\":7586:7595   */\n      sgt\n        /* \"#utility.yul\":7582:7607   */\n      and\n        /* \"#utility.yul\":7578:7693   */\n      and\n        /* \"#utility.yul\":7575:7716   */\n      iszero\n      tag_194\n      jumpi\n        /* \"#utility.yul\":7696:7714   */\n      tag_195\n      tag_181\n      jump\t// in\n    tag_195:\n        /* \"#utility.yul\":7575:7716   */\n    tag_194:\n        /* \"#utility.yul\":7900:7901   */\n      dup3\n        /* \"#utility.yul\":7832:7898   */\n      0x8000000000000000000000000000000000000000000000000000000000000000\n        /* \"#utility.yul\":7827:7902   */\n      sdiv\n        /* \"#utility.yul\":7824:7825   */\n      dup3\n        /* \"#utility.yul\":7820:7903   */\n      slt\n        /* \"#utility.yul\":7815:7816   */\n      0x00\n        /* \"#utility.yul\":7812:7813   */\n      dup5\n        /* \"#utility.yul\":7808:7817   */\n      sgt\n        /* \"#utility.yul\":7804:7805   */\n      0x00\n        /* \"#utility.yul\":7801:7802   */\n      dup5\n        /* \"#utility.yul\":7797:7806   */\n      slt\n        /* \"#utility.yul\":7793:7818   */\n      and\n        /* \"#utility.yul\":7789:7904   */\n      and\n        /* \"#utility.yul\":7786:7927   */\n      iszero\n      tag_196\n      jumpi\n        /* \"#utility.yul\":7907:7925   */\n      tag_197\n      tag_181\n      jump\t// in\n    tag_197:\n        /* \"#utility.yul\":7786:7927   */\n    tag_196:\n        /* \"#utility.yul\":8110:8111   */\n      dup3\n        /* \"#utility.yul\":8042:8108   */\n      0x7fffffffffffffffffffffffffffffffffffffffffffffffffffffffffffffff\n        /* \"#utility.yul\":8037:8112   */\n      sdiv\n        /* \"#utility.yul\":8034:8035   */\n      dup3\n        /* \"#utility.yul\":8030:8113   */\n      slt\n        /* \"#utility.yul\":8025:8026   */\n      0x00\n        /* \"#utility.yul\":8022:8023   */\n      dup5\n        /* \"#utility.yul\":8018:8027   */\n      slt\n        /* \"#utility.yul\":8014:8015   */\n      0x00\n        /* \"#utility.yul\":8011:8012   */\n      dup5\n        /* \"#utility.yul\":8007:8016   */\n      slt\n        /* \"#utility.yul\":8003:8028   */\n      and\n        /* \"#utility.yul\":7999:8114   */\n      and\n        /* \"#utility.yul\":7996:8137   */\n      iszero\n      tag_198\n      jumpi\n        /* \"#utility.yul\":8117:8135   */\n      tag_199\n      tag_181\n      jump\t// in\n    tag_199:\n        /* \"#utility.yul\":7996:8137   */\n    tag_198:\n        /* \"#utility.yul\":8165:8166   */\n      dup3\n        /* \"#utility.yul\":8162:8163   */\n      dup3\n        /* \"#utility.yul\":8158:8167   */\n      mul\n        /* \"#utility.yul\":8147:8167   */\n      swap1\n      pop\n        /* \"#utility.yul\":7182:8173   */\n      swap3\n      swap2\n      pop\n      pop\n      jump\t// out\n        /* \"#utility.yul\":8179:8527   */\n    tag_75:\n        /* \"#utility.yul\":8219:8226   */\n      0x00\n        /* \"#utility.yul\":8242:8262   */\n      tag_201\n        /* \"#utility.yul\":8260:8261   */\n      dup3\n        /* \"#utility.yul\":8242:8262   */\n      tag_159\n      jump\t// in\n    tag_201:\n        /* \"#utility.yul\":8237:8262   */\n      swap2\n      pop\n        /* \"#utility.yul\":8276:8296   */\n      tag_202\n        /* \"#utility.yul\":8294:8295   */\n      dup4\n        /* \"#utility.yul\":8276:8296   */\n      tag_159\n      jump\t// in\n    tag_202:\n        /* \"#utility.yul\":8271:8296   */\n      swap3\n      pop\n        /* \"#utility.yul\":8464:8465   */\n      dup2\n        /* \"#utility.yul\":8396:8462   */\n      0xffffffffffffffffffffffffffffffffffffffffffffffffffffffffffffffff\n        /* \"#utility.yul\":8392:8466   */\n      div\n        /* \"#utility.yul\":8389:8390   */\n      dup4\n        /* \"#utility.yul\":8386:8467   */\n      gt\n        /* \"#utility.yul\":8381:8382   */\n      dup3\n        /* \"#utility.yul\":8374:8383   */\n      iszero\n        /* \"#utility.yul\":8367:8384   */\n      iszero\n        /* \"#utility.yul\":8363:8468   */\n      and\n        /* \"#utility.yul\":8360:8491   */\n      iszero\n      tag_203\n      jumpi\n        /* \"#utility.yul\":8471:8489   */\n      tag_204\n      tag_181\n      jump\t// in\n    tag_204:\n        /* \"#utility.yul\":8360:8491   */\n    tag_203:\n        /* \"#utility.yul\":8519:8520   */\n      dup3\n        /* \"#utility.yul\":8516:8517   */\n      dup3\n        /* \"#utility.yul\":8512:8521   */\n      mul\n        /* \"#utility.yul\":8501:8521   */\n      swap1\n      pop\n        /* \"#utility.yul\":8179:8527   */\n      swap3\n      swap2\n      pop\n      pop\n      jump\t// out\n        /* \"#utility.yul\":8533:8629   */\n    tag_133:\n        /* \"#utility.yul\":8570:8577   */\n      0x00\n        /* \"#utility.yul\":8599:8623   */\n      tag_206\n        /* \"#utility.yul\":8617:8622   */\n      dup3\n        /* \"#utility.yul\":8599:8623   */\n      tag_207\n      jump\t// in\n    tag_206:\n        /* \"#utility.yul\":8588:8623   */\n      swap1\n      pop\n        /* \"#utility.yul\":8533:8629   */\n      swap2\n      swap1\n      pop\n      jump\t// out\n        /* \"#utility.yul\":8635:8711   */\n    tag_190:\n        /* \"#utility.yul\":8671:8678   */\n      0x00\n        /* \"#utility.yul\":8700:8705   */\n      dup2\n        /* \"#utility.yul\":8689:8705   */\n      swap1\n      pop\n        /* \"#utility.yul\":8635:8711   */\n      swap2\n      swap1\n      pop\n      jump\t// out\n        /* \"#utility.yul\":8717:8843   */\n    tag_207:\n        /* \"#utility.yul\":8754:8761   */\n      0x00\n        /* \"#utility.yul\":8794:8836   */\n      0xffffffffffffffffffffffffffffffffffffffff\n        /* \"#utility.yul\":8787:8792   */\n      dup3\n        /* \"#utility.yul\":8783:8837   */\n      and\n        /* \"#utility.yul\":8772:8837   */\n      swap1\n      pop\n        /* \"#utility.yul\":8717:8843   */\n      swap2\n      swap1\n      pop\n      jump\t// out\n        /* \"#utility.yul\":8849:8926   */\n    tag_159:\n        /* \"#utility.yul\":8886:8893   */\n      0x00\n        /* \"#utility.yul\":8915:8920   */\n      dup2\n        /* \"#utility.yul\":8904:8920   */\n      swap1\n      pop\n        /* \"#utility.yul\":8849:8926   */\n      swap2\n      swap1\n      pop\n      jump\t// out\n        /* \"#utility.yul\":8932:9037   */\n    tag_211:\n        /* \"#utility.yul\":8968:8975   */\n      0x00\n        /* \"#utility.yul\":9008:9030   */\n      0xffffffffffffffffffff\n        /* \"#utility.yul\":9001:9006   */\n      dup3\n        /* \"#utility.yul\":8997:9031   */\n      and\n        /* \"#utility.yul\":8986:9031   */\n      swap1\n      pop\n        /* \"#utility.yul\":8932:9037   */\n      swap2\n      swap1\n      pop\n      jump\t// out\n        /* \"#utility.yul\":9043:9276   */\n    tag_39:\n        /* \"#utility.yul\":9082:9085   */\n      0x00\n        /* \"#utility.yul\":9105:9129   */\n      tag_214\n        /* \"#utility.yul\":9123:9128   */\n      dup3\n        /* \"#utility.yul\":9105:9129   */\n      tag_159\n      jump\t// in\n    tag_214:\n        /* \"#utility.yul\":9096:9129   */\n      swap2\n      pop\n        /* \"#utility.yul\":9151:9217   */\n      0xffffffffffffffffffffffffffffffffffffffffffffffffffffffffffffffff\n        /* \"#utility.yul\":9144:9149   */\n      dup3\n        /* \"#utility.yul\":9141:9218   */\n      eq\n        /* \"#utility.yul\":9138:9241   */\n      iszero\n      tag_215\n      jumpi\n        /* \"#utility.yul\":9221:9239   */\n      tag_216\n      tag_181\n      jump\t// in\n    tag_216:\n        /* \"#utility.yul\":9138:9241   */\n    tag_215:\n        /* \"#utility.yul\":9268:9269   */\n      0x01\n        /* \"#utility.yul\":9261:9266   */\n      dup3\n        /* \"#utility.yul\":9257:9270   */\n      add\n        /* \"#utility.yul\":9250:9270   */\n      swap1\n      pop\n        /* \"#utility.yul\":9043:9276   */\n      swap2\n      swap1\n      pop\n      jump\t// out\n        /* \"#utility.yul\":9282:9462   */\n    tag_181:\n        /* \"#utility.yul\":9330:9407   */\n      0x4e487b7100000000000000000000000000000000000000000000000000000000\n        /* \"#utility.yul\":9327:9328   */\n      0x00\n        /* \"#utility.yul\":9320:9408   */\n      mstore\n        /* \"#utility.yul\":9427:9431   */\n      0x11\n        /* \"#utility.yul\":9424:9425   */\n      0x04\n        /* \"#utility.yul\":9417:9432   */\n      mstore\n        /* \"#utility.yul\":9451:9455   */\n      0x24\n        /* \"#utility.yul\":9448:9449   */\n      0x00\n        /* \"#utility.yul\":9441:9456   */\n      revert\n        /* \"#utility.yul\":9468:9648   */\n    tag_187:\n        /* \"#utility.yul\":9516:9593   */\n      0x4e487b7100000000000000000000000000000000000000000000000000000000\n        /* \"#utility.yul\":9513:9514   */\n      0x00\n        /* \"#utility.yul\":9506:9594   */\n      mstore\n        /* \"#utility.yul\":9613:9617   */\n      0x12\n        /* \"#utility.yul\":9610:9611   */\n      0x04\n        /* \"#utility.yul\":9603:9618   */\n      mstore\n        /* \"#utility.yul\":9637:9641   */\n      0x24\n        /* \"#utility.yul\":9634:9635   */\n      0x00\n        /* \"#utility.yul\":9627:9642   */\n      revert\n        /* \"#utility.yul\":9654:9834   */\n    tag_36:\n        /* \"#utility.yul\":9702:9779   */\n      0x4e487b7100000000000000000000000000000000000000000000000000000000\n        /* \"#utility.yul\":9699:9700   */\n      0x00\n        /* \"#utility.yul\":9692:9780   */\n      mstore\n        /* \"#utility.yul\":9799:9803   */\n      0x32\n        /* \"#utility.yul\":9796:9797   */\n      0x04\n        /* \"#utility.yul\":9789:9804   */\n      mstore\n        /* \"#utility.yul\":9823:9827   */\n      0x24\n        /* \"#utility.yul\":9820:9821   */\n      0x00\n        /* \"#utility.yul\":9813:9828   */\n      revert\n        /* \"#utility.yul\":9840:10020   */\n    tag_42:\n        /* \"#utility.yul\":9888:9965   */\n      0x4e487b7100000000000000000000000000000000000000000000000000000000\n        /* \"#utility.yul\":9885:9886   */\n      0x00\n        /* \"#utility.yul\":9878:9966   */\n      mstore\n        /* \"#utility.yul\":9985:9989   */\n      0x41\n        /* \"#utility.yul\":9982:9983   */\n      0x04\n        /* \"#utility.yul\":9975:9990   */\n      mstore\n        /* \"#utility.yul\":10009:10013   */\n      0x24\n        /* \"#utility.yul\":10006:10007   */\n      0x00\n        /* \"#utility.yul\":9999:10014   */\n      revert\n        /* \"#utility.yul\":10149:10266   */\n    tag_116:\n        /* \"#utility.yul\":10258:10259   */\n      0x00\n        /* \"#utility.yul\":10255:10256   */\n      dup1\n        /* \"#utility.yul\":10248:10260   */\n      revert\n        /* \"#utility.yul\":10272:10440   */\n    tag_139:\n        /* \"#utility.yul\":10412:10432   */\n      0x4469646e27742073656e6420656e6f7567680000000000000000000000000000\n        /* \"#utility.yul\":10408:10409   */\n      0x00\n        /* \"#utility.yul\":10400:10406   */\n      dup3\n        /* \"#utility.yul\":10396:10410   */\n      add\n        /* \"#utility.yul\":10389:10433   */\n      mstore\n        /* \"#utility.yul\":10272:10440   */\n      pop\n      jump\t// out\n        /* \"#utility.yul\":10446:10607   */\n    tag_144:\n        /* \"#utility.yul\":10586:10599   */\n      0x53656e64204661696c6564000000000000000000000000000000000000000000\n        /* \"#utility.yul\":10582:10583   */\n      0x00\n        /* \"#utility.yul\":10574:10580   */\n      dup3\n        /* \"#utility.yul\":10570:10584   */\n      add\n        /* \"#utility.yul\":10563:10600   */\n      mstore\n        /* \"#utility.yul\":10446:10607   */\n      pop\n      jump\t// out\n        /* \"#utility.yul\":10613:10727   */\n    tag_150:\n      pop\n      jump\t// out\n        /* \"#utility.yul\":10733:10894   */\n    tag_155:\n        /* \"#utility.yul\":10873:10886   */\n      0x43616c6c204661696c6564000000000000000000000000000000000000000000\n        /* \"#utility.yul\":10869:10870   */\n      0x00\n        /* \"#utility.yul\":10861:10867   */\n      dup3\n        /* \"#utility.yul\":10857:10871   */\n      add\n        /* \"#utility.yul\":10850:10887   */\n      mstore\n        /* \"#utility.yul\":10733:10894   */\n      pop\n      jump\t// out\n        /* \"#utility.yul\":10900:11022   */\n    tag_97:\n        /* \"#utility.yul\":10973:10997   */\n      tag_229\n        /* \"#utility.yul\":10991:10996   */\n      dup2\n        /* \"#utility.yul\":10973:10997   */\n      tag_133\n      jump\t// in\n    tag_229:\n        /* \"#utility.yul\":10966:10971   */\n      dup2\n        /* \"#utility.yul\":10963:10998   */\n      eq\n        /* \"#utility.yul\":10953:11016   */\n      tag_230\n      jumpi\n        /* \"#utility.yul\":11012:11013   */\n      0x00\n        /* \"#utility.yul\":11009:11010   */\n      dup1\n        /* \"#utility.yul\":11002:11014   */\n      revert\n        /* \"#utility.yul\":10953:11016   */\n    tag_230:\n        /* \"#utility.yul\":10900:11022   */\n      pop\n      jump\t// out\n        /* \"#utility.yul\":11028:11148   */\n    tag_101:\n        /* \"#utility.yul\":11100:11123   */\n      tag_232\n        /* \"#utility.yul\":11117:11122   */\n      dup2\n        /* \"#utility.yul\":11100:11123   */\n      tag_190\n      jump\t// in\n    tag_232:\n        /* \"#utility.yul\":11093:11098   */\n      dup2\n        /* \"#utility.yul\":11090:11124   */\n      eq\n        /* \"#utility.yul\":11080:11142   */\n      tag_233\n      jumpi\n        /* \"#utility.yul\":11138:11139   */\n      0x00\n        /* \"#utility.yul\":11135:11136   */\n      dup1\n        /* \"#utility.yul\":11128:11140   */\n      revert\n        /* \"#utility.yul\":11080:11142   */\n    tag_233:\n        /* \"#utility.yul\":11028:11148   */\n      pop\n      jump\t// out\n        /* \"#utility.yul\":11154:11276   */\n    tag_105:\n        /* \"#utility.yul\":11227:11251   */\n      tag_235\n        /* \"#utility.yul\":11245:11250   */\n      dup2\n        /* \"#utility.yul\":11227:11251   */\n      tag_159\n      jump\t// in\n    tag_235:\n        /* \"#utility.yul\":11220:11225   */\n      dup2\n        /* \"#utility.yul\":11217:11252   */\n      eq\n        /* \"#utility.yul\":11207:11270   */\n      tag_236\n      jumpi\n        /* \"#utility.yul\":11266:11267   */\n      0x00\n        /* \"#utility.yul\":11263:11264   */\n      dup1\n        /* \"#utility.yul\":11256:11268   */\n      revert\n        /* \"#utility.yul\":11207:11270   */\n    tag_236:\n        /* \"#utility.yul\":11154:11276   */\n      pop\n      jump\t// out\n        /* \"#utility.yul\":11282:11402   */\n    tag_112:\n        /* \"#utility.yul\":11354:11377   */\n      tag_238\n        /* \"#utility.yul\":11371:11376   */\n      dup2\n        /* \"#utility.yul\":11354:11377   */\n      tag_211\n      jump\t// in\n    tag_238:\n        /* \"#utility.yul\":11347:11352   */\n      dup2\n        /* \"#utility.yul\":11344:11378   */\n      eq\n        /* \"#utility.yul\":11334:11396   */\n      tag_239\n      jumpi\n        /* \"#utility.yul\":11392:11393   */\n      0x00\n        /* \"#utility.yul\":11389:11390   */\n      dup1\n        /* \"#utility.yul\":11382:11394   */\n      revert\n        /* \"#utility.yul\":11334:11396   */\n    tag_239:\n        /* \"#utility.yul\":11282:11402   */\n      pop\n      jump\t// out\n\n    auxdata: 0xa264697066735822122007c68c8c5509710ebf1270395b61767806aec18faf2c1c835184df18853bc14164736f6c63430008070033\n}\n",
				"bytecode": {
					"linkReferences": {},
					"object": "60806040526802b5e3af16b188000060005534801561001d57600080fd5b50610dac8061002d6000396000f3fe60806040526004361061004a5760003560e01c8063098de8201461004f5780633ccfd60b1461007a5780633e47d6f314610091578063b60d4288146100ce578063dc0d3dff146100d8575b600080fd5b34801561005b57600080fd5b50610064610115565b6040516100719190610907565b60405180910390f35b34801561008657600080fd5b5061008f61011b565b005b34801561009d57600080fd5b506100b860048036038101906100b391906106f8565b610398565b6040516100c59190610907565b60405180910390f35b6100d66103b0565b005b3480156100e457600080fd5b506100ff60048036038101906100fa9190610725565b6104b7565b60405161010c919061088c565b60405180910390f35b60005481565b60005b6001805490508110156101c75760006001828154811061014157610140610c39565b5b9060005260206000200160009054906101000a900473ffffffffffffffffffffffffffffffffffffffff1690506000600260008373ffffffffffffffffffffffffffffffffffffffff1673ffffffffffffffffffffffffffffffffffffffff168152602001908152602001600020819055505080806101bf90610b92565b91505061011e565b50600067ffffffffffffffff8111156101e3576101e2610c68565b5b6040519080825280602002602001820160405280156102115781602001602082028036833780820191505090505b50600190805190602001906102279291906105e8565b503373ffffffffffffffffffffffffffffffffffffffff166108fc479081150290604051600060405180830381858888f1935050505015801561026e573d6000803e3d6000fd5b5060003373ffffffffffffffffffffffffffffffffffffffff166108fc479081150290604051600060405180830381858888f193505050509050806102e8576040517f08c379a00000000000000000000000000000000000000000000000000000000081526004016102df906108c7565b60405180910390fd5b60003373ffffffffffffffffffffffffffffffffffffffff164760405161030e90610877565b60006040518083038185875af1925050503d806000811461034b576040519150601f19603f3d011682016040523d82523d6000602084013e610350565b606091505b5050905080610394576040517f08c379a000000000000000000000000000000000000000000000000000000000815260040161038b906108e7565b60405180910390fd5b5050565b60026020528060005260406000206000915090505481565b6000546103bc346104f6565b116103fc576040517f08c379a00000000000000000000000000000000000000000000000000000000081526004016103f3906108a7565b60405180910390fd5b6001339080600181540180825580915050600190039060005260206000200160009091909190916101000a81548173ffffffffffffffffffffffffffffffffffffffff021916908373ffffffffffffffffffffffffffffffffffffffff16021790555034600260003373ffffffffffffffffffffffffffffffffffffffff1673ffffffffffffffffffffffffffffffffffffffff16815260200190815260200160002060008282546104ae919061093e565b92505081905550565b600181815481106104c757600080fd5b906000526020600020016000915054906101000a900473ffffffffffffffffffffffffffffffffffffffff1681565b600080610501610530565b90506000670de0b6b3a7640000828561051a9190610adc565b6105249190610994565b90508092505050919050565b600080738a753747a1fa494ec906ce90e9f37563a8af630e905060008173ffffffffffffffffffffffffffffffffffffffff1663feaf968c6040518163ffffffff1660e01b815260040160a06040518083038186803b15801561059257600080fd5b505afa1580156105a6573d6000803e3d6000fd5b505050506040513d601f19601f820116820180604052508101906105ca9190610752565b5050509150506402540be400816105e191906109c5565b9250505090565b828054828255906000526020600020908101928215610661579160200282015b828111156106605782518260006101000a81548173ffffffffffffffffffffffffffffffffffffffff021916908373ffffffffffffffffffffffffffffffffffffffff16021790555091602001919060010190610608565b5b50905061066e9190610672565b5090565b5b8082111561068b576000816000905550600101610673565b5090565b60008135905061069e81610d1a565b92915050565b6000815190506106b381610d31565b92915050565b6000813590506106c881610d48565b92915050565b6000815190506106dd81610d48565b92915050565b6000815190506106f281610d5f565b92915050565b60006020828403121561070e5761070d610c97565b5b600061071c8482850161068f565b91505092915050565b60006020828403121561073b5761073a610c97565b5b6000610749848285016106b9565b91505092915050565b600080600080600060a0868803121561076e5761076d610c97565b5b600061077c888289016106e3565b955050602061078d888289016106a4565b945050604061079e888289016106ce565b93505060606107af888289016106ce565b92505060806107c0888289016106e3565b9150509295509295909350565b6107d681610b36565b82525050565b60006107e960128361092d565b91506107f482610c9c565b602082019050919050565b600061080c600b8361092d565b915061081782610cc5565b602082019050919050565b600061082f600083610922565b915061083a82610cee565b600082019050919050565b6000610852600b8361092d565b915061085d82610cf1565b602082019050919050565b61087181610b72565b82525050565b600061088282610822565b9150819050919050565b60006020820190506108a160008301846107cd565b92915050565b600060208201905081810360008301526108c0816107dc565b9050919050565b600060208201905081810360008301526108e0816107ff565b9050919050565b6000602082019050818103600083015261090081610845565b9050919050565b600060208201905061091c6000830184610868565b92915050565b600081905092915050565b600082825260208201905092915050565b600061094982610b72565b915061095483610b72565b9250827fffffffffffffffffffffffffffffffffffffffffffffffffffffffffffffffff0382111561098957610988610bdb565b5b828201905092915050565b600061099f82610b72565b91506109aa83610b72565b9250826109ba576109b9610c0a565b5b828204905092915050565b60006109d082610b48565b91506109db83610b48565b9250827f7fffffffffffffffffffffffffffffffffffffffffffffffffffffffffffffff0482116000841360008413161615610a1a57610a19610bdb565b5b817f80000000000000000000000000000000000000000000000000000000000000000583126000841260008413161615610a5757610a56610bdb565b5b827f80000000000000000000000000000000000000000000000000000000000000000582126000841360008412161615610a9457610a93610bdb565b5b827f7fffffffffffffffffffffffffffffffffffffffffffffffffffffffffffffff0582126000841260008412161615610ad157610ad0610bdb565b5b828202905092915050565b6000610ae782610b72565b9150610af283610b72565b9250817fffffffffffffffffffffffffffffffffffffffffffffffffffffffffffffffff0483118215151615610b2b57610b2a610bdb565b5b828202905092915050565b6000610b4182610b52565b9050919050565b6000819050919050565b600073ffffffffffffffffffffffffffffffffffffffff82169050919050565b6000819050919050565b600069ffffffffffffffffffff82169050919050565b6000610b9d82610b72565b91507fffffffffffffffffffffffffffffffffffffffffffffffffffffffffffffffff821415610bd057610bcf610bdb565b5b600182019050919050565b7f4e487b7100000000000000000000000000000000000000000000000000000000600052601160045260246000fd5b7f4e487b7100000000000000000000000000000000000000000000000000000000600052601260045260246000fd5b7f4e487b7100000000000000000000000000000000000000000000000000000000600052603260045260246000fd5b7f4e487b7100000000000000000000000000000000000000000000000000000000600052604160045260246000fd5b600080fd5b7f4469646e27742073656e6420656e6f7567680000000000000000000000000000600082015250565b7f53656e64204661696c6564000000000000000000000000000000000000000000600082015250565b50565b7f43616c6c204661696c6564000000000000000000000000000000000000000000600082015250565b610d2381610b36565b8114610d2e57600080fd5b50565b610d3a81610b48565b8114610d4557600080fd5b50565b610d5181610b72565b8114610d5c57600080fd5b50565b610d6881610b7c565b8114610d7357600080fd5b5056fea264697066735822122007c68c8c5509710ebf1270395b61767806aec18faf2c1c835184df18853bc14164736f6c63430008070033",
					"opcodes": "PUSH1 0x80 PUSH1 0x40 MSTORE PUSH9 0x2B5E3AF16B1880000 PUSH1 0x0 SSTORE CALLVALUE DUP1 ISZERO PUSH2 0x1D JUMPI PUSH1 0x0 DUP1 REVERT JUMPDEST POP PUSH2 0xDAC DUP1 PUSH2 0x2D PUSH1 0x0 CODECOPY PUSH1 0x0 RETURN INVALID PUSH1 0x80 PUSH1 0x40 MSTORE PUSH1 0x4 CALLDATASIZE LT PUSH2 0x4A JUMPI PUSH1 0x0 CALLDATALOAD PUSH1 0xE0 SHR DUP1 PUSH4 0x98DE820 EQ PUSH2 0x4F JUMPI DUP1 PUSH4 0x3CCFD60B EQ PUSH2 0x7A JUMPI DUP1 PUSH4 0x3E47D6F3 EQ PUSH2 0x91 JUMPI DUP1 PUSH4 0xB60D4288 EQ PUSH2 0xCE JUMPI DUP1 PUSH4 0xDC0D3DFF EQ PUSH2 0xD8 JUMPI JUMPDEST PUSH1 0x0 DUP1 REVERT JUMPDEST CALLVALUE DUP1 ISZERO PUSH2 0x5B JUMPI PUSH1 0x0 DUP1 REVERT JUMPDEST POP PUSH2 0x64 PUSH2 0x115 JUMP JUMPDEST PUSH1 0x40 MLOAD PUSH2 0x71 SWAP2 SWAP1 PUSH2 0x907 JUMP JUMPDEST PUSH1 0x40 MLOAD DUP1 SWAP2 SUB SWAP1 RETURN JUMPDEST CALLVALUE DUP1 ISZERO PUSH2 0x86 JUMPI PUSH1 0x0 DUP1 REVERT JUMPDEST POP PUSH2 0x8F PUSH2 0x11B JUMP JUMPDEST STOP JUMPDEST CALLVALUE DUP1 ISZERO PUSH2 0x9D JUMPI PUSH1 0x0 DUP1 REVERT JUMPDEST POP PUSH2 0xB8 PUSH1 0x4 DUP1 CALLDATASIZE SUB DUP2 ADD SWAP1 PUSH2 0xB3 SWAP2 SWAP1 PUSH2 0x6F8 JUMP JUMPDEST PUSH2 0x398 JUMP JUMPDEST PUSH1 0x40 MLOAD PUSH2 0xC5 SWAP2 SWAP1 PUSH2 0x907 JUMP JUMPDEST PUSH1 0x40 MLOAD DUP1 SWAP2 SUB SWAP1 RETURN JUMPDEST PUSH2 0xD6 PUSH2 0x3B0 JUMP JUMPDEST STOP JUMPDEST CALLVALUE DUP1 ISZERO PUSH2 0xE4 JUMPI PUSH1 0x0 DUP1 REVERT JUMPDEST POP PUSH2 0xFF PUSH1 0x4 DUP1 CALLDATASIZE SUB DUP2 ADD SWAP1 PUSH2 0xFA SWAP2 SWAP1 PUSH2 0x725 JUMP JUMPDEST PUSH2 0x4B7 JUMP JUMPDEST PUSH1 0x40 MLOAD PUSH2 0x10C SWAP2 SWAP1 PUSH2 0x88C JUMP JUMPDEST PUSH1 0x40 MLOAD DUP1 SWAP2 SUB SWAP1 RETURN JUMPDEST PUSH1 0x0 SLOAD DUP2 JUMP JUMPDEST PUSH1 0x0 JUMPDEST PUSH1 0x1 DUP1 SLOAD SWAP1 POP DUP2 LT ISZERO PUSH2 0x1C7 JUMPI PUSH1 0x0 PUSH1 0x1 DUP3 DUP2 SLOAD DUP2 LT PUSH2 0x141 JUMPI PUSH2 0x140 PUSH2 0xC39 JUMP JUMPDEST JUMPDEST SWAP1 PUSH1 0x0 MSTORE PUSH1 0x20 PUSH1 0x0 KECCAK256 ADD PUSH1 0x0 SWAP1 SLOAD SWAP1 PUSH2 0x100 EXP SWAP1 DIV PUSH20 0xFFFFFFFFFFFFFFFFFFFFFFFFFFFFFFFFFFFFFFFF AND SWAP1 POP PUSH1 0x0 PUSH1 0x2 PUSH1 0x0 DUP4 PUSH20 0xFFFFFFFFFFFFFFFFFFFFFFFFFFFFFFFFFFFFFFFF AND PUSH20 0xFFFFFFFFFFFFFFFFFFFFFFFFFFFFFFFFFFFFFFFF AND DUP2 MSTORE PUSH1 0x20 ADD SWAP1 DUP2 MSTORE PUSH1 0x20 ADD PUSH1 0x0 KECCAK256 DUP2 SWAP1 SSTORE POP POP DUP1 DUP1 PUSH2 0x1BF SWAP1 PUSH2 0xB92 JUMP JUMPDEST SWAP2 POP POP PUSH2 0x11E JUMP JUMPDEST POP PUSH1 0x0 PUSH8 0xFFFFFFFFFFFFFFFF DUP2 GT ISZERO PUSH2 0x1E3 JUMPI PUSH2 0x1E2 PUSH2 0xC68 JUMP JUMPDEST JUMPDEST PUSH1 0x40 MLOAD SWAP1 DUP1 DUP3 MSTORE DUP1 PUSH1 0x20 MUL PUSH1 0x20 ADD DUP3 ADD PUSH1 0x40 MSTORE DUP1 ISZERO PUSH2 0x211 JUMPI DUP2 PUSH1 0x20 ADD PUSH1 0x20 DUP3 MUL DUP1 CALLDATASIZE DUP4 CALLDATACOPY DUP1 DUP3 ADD SWAP2 POP POP SWAP1 POP JUMPDEST POP PUSH1 0x1 SWAP1 DUP1 MLOAD SWAP1 PUSH1 0x20 ADD SWAP1 PUSH2 0x227 SWAP3 SWAP2 SWAP1 PUSH2 0x5E8 JUMP JUMPDEST POP CALLER PUSH20 0xFFFFFFFFFFFFFFFFFFFFFFFFFFFFFFFFFFFFFFFF AND PUSH2 0x8FC SELFBALANCE SWAP1 DUP2 ISZERO MUL SWAP1 PUSH1 0x40 MLOAD PUSH1 0x0 PUSH1 0x40 MLOAD DUP1 DUP4 SUB DUP2 DUP6 DUP9 DUP9 CALL SWAP4 POP POP POP POP ISZERO DUP1 ISZERO PUSH2 0x26E JUMPI RETURNDATASIZE PUSH1 0x0 DUP1 RETURNDATACOPY RETURNDATASIZE PUSH1 0x0 REVERT JUMPDEST POP PUSH1 0x0 CALLER PUSH20 0xFFFFFFFFFFFFFFFFFFFFFFFFFFFFFFFFFFFFFFFF AND PUSH2 0x8FC SELFBALANCE SWAP1 DUP2 ISZERO MUL SWAP1 PUSH1 0x40 MLOAD PUSH1 0x0 PUSH1 0x40 MLOAD DUP1 DUP4 SUB DUP2 DUP6 DUP9 DUP9 CALL SWAP4 POP POP POP POP SWAP1 POP DUP1 PUSH2 0x2E8 JUMPI PUSH1 0x40 MLOAD PUSH32 0x8C379A000000000000000000000000000000000000000000000000000000000 DUP2 MSTORE PUSH1 0x4 ADD PUSH2 0x2DF SWAP1 PUSH2 0x8C7 JUMP JUMPDEST PUSH1 0x40 MLOAD DUP1 SWAP2 SUB SWAP1 REVERT JUMPDEST PUSH1 0x0 CALLER PUSH20 0xFFFFFFFFFFFFFFFFFFFFFFFFFFFFFFFFFFFFFFFF AND SELFBALANCE PUSH1 0x40 MLOAD PUSH2 0x30E SWAP1 PUSH2 0x877 JUMP JUMPDEST PUSH1 0x0 PUSH1 0x40 MLOAD DUP1 DUP4 SUB DUP2 DUP6 DUP8 GAS CALL SWAP3 POP POP POP RETURNDATASIZE DUP1 PUSH1 0x0 DUP2 EQ PUSH2 0x34B JUMPI PUSH1 0x40 MLOAD SWAP2 POP PUSH1 0x1F NOT PUSH1 0x3F RETURNDATASIZE ADD AND DUP3 ADD PUSH1 0x40 MSTORE RETURNDATASIZE DUP3 MSTORE RETURNDATASIZE PUSH1 0x0 PUSH1 0x20 DUP5 ADD RETURNDATACOPY PUSH2 0x350 JUMP JUMPDEST PUSH1 0x60 SWAP2 POP JUMPDEST POP POP SWAP1 POP DUP1 PUSH2 0x394 JUMPI PUSH1 0x40 MLOAD PUSH32 0x8C379A000000000000000000000000000000000000000000000000000000000 DUP2 MSTORE PUSH1 0x4 ADD PUSH2 0x38B SWAP1 PUSH2 0x8E7 JUMP JUMPDEST PUSH1 0x40 MLOAD DUP1 SWAP2 SUB SWAP1 REVERT JUMPDEST POP POP JUMP JUMPDEST PUSH1 0x2 PUSH1 0x20 MSTORE DUP1 PUSH1 0x0 MSTORE PUSH1 0x40 PUSH1 0x0 KECCAK256 PUSH1 0x0 SWAP2 POP SWAP1 POP SLOAD DUP2 JUMP JUMPDEST PUSH1 0x0 SLOAD PUSH2 0x3BC CALLVALUE PUSH2 0x4F6 JUMP JUMPDEST GT PUSH2 0x3FC JUMPI PUSH1 0x40 MLOAD PUSH32 0x8C379A000000000000000000000000000000000000000000000000000000000 DUP2 MSTORE PUSH1 0x4 ADD PUSH2 0x3F3 SWAP1 PUSH2 0x8A7 JUMP JUMPDEST PUSH1 0x40 MLOAD DUP1 SWAP2 SUB SWAP1 REVERT JUMPDEST PUSH1 0x1 CALLER SWAP1 DUP1 PUSH1 0x1 DUP2 SLOAD ADD DUP1 DUP3 SSTORE DUP1 SWAP2 POP POP PUSH1 0x1 SWAP1 SUB SWAP1 PUSH1 0x0 MSTORE PUSH1 0x20 PUSH1 0x0 KECCAK256 ADD PUSH1 0x0 SWAP1 SWAP2 SWAP1 SWAP2 SWAP1 SWAP2 PUSH2 0x100 EXP DUP2 SLOAD DUP2 PUSH20 0xFFFFFFFFFFFFFFFFFFFFFFFFFFFFFFFFFFFFFFFF MUL NOT AND SWAP1 DUP4 PUSH20 0xFFFFFFFFFFFFFFFFFFFFFFFFFFFFFFFFFFFFFFFF AND MUL OR SWAP1 SSTORE POP CALLVALUE PUSH1 0x2 PUSH1 0x0 CALLER PUSH20 0xFFFFFFFFFFFFFFFFFFFFFFFFFFFFFFFFFFFFFFFF AND PUSH20 0xFFFFFFFFFFFFFFFFFFFFFFFFFFFFFFFFFFFFFFFF AND DUP2 MSTORE PUSH1 0x20 ADD SWAP1 DUP2 MSTORE PUSH1 0x20 ADD PUSH1 0x0 KECCAK256 PUSH1 0x0 DUP3 DUP3 SLOAD PUSH2 0x4AE SWAP2 SWAP1 PUSH2 0x93E JUMP JUMPDEST SWAP3 POP POP DUP2 SWAP1 SSTORE POP JUMP JUMPDEST PUSH1 0x1 DUP2 DUP2 SLOAD DUP2 LT PUSH2 0x4C7 JUMPI PUSH1 0x0 DUP1 REVERT JUMPDEST SWAP1 PUSH1 0x0 MSTORE PUSH1 0x20 PUSH1 0x0 KECCAK256 ADD PUSH1 0x0 SWAP2 POP SLOAD SWAP1 PUSH2 0x100 EXP SWAP1 DIV PUSH20 0xFFFFFFFFFFFFFFFFFFFFFFFFFFFFFFFFFFFFFFFF AND DUP2 JUMP JUMPDEST PUSH1 0x0 DUP1 PUSH2 0x501 PUSH2 0x530 JUMP JUMPDEST SWAP1 POP PUSH1 0x0 PUSH8 0xDE0B6B3A7640000 DUP3 DUP6 PUSH2 0x51A SWAP2 SWAP1 PUSH2 0xADC JUMP JUMPDEST PUSH2 0x524 SWAP2 SWAP1 PUSH2 0x994 JUMP JUMPDEST SWAP1 POP DUP1 SWAP3 POP POP POP SWAP2 SWAP1 POP JUMP JUMPDEST PUSH1 0x0 DUP1 PUSH20 0x8A753747A1FA494EC906CE90E9F37563A8AF630E SWAP1 POP PUSH1 0x0 DUP2 PUSH20 0xFFFFFFFFFFFFFFFFFFFFFFFFFFFFFFFFFFFFFFFF AND PUSH4 0xFEAF968C PUSH1 0x40 MLOAD DUP2 PUSH4 0xFFFFFFFF AND PUSH1 0xE0 SHL DUP2 MSTORE PUSH1 0x4 ADD PUSH1 0xA0 PUSH1 0x40 MLOAD DUP1 DUP4 SUB DUP2 DUP7 DUP1 EXTCODESIZE ISZERO DUP1 ISZERO PUSH2 0x592 JUMPI PUSH1 0x0 DUP1 REVERT JUMPDEST POP GAS STATICCALL ISZERO DUP1 ISZERO PUSH2 0x5A6 JUMPI RETURNDATASIZE PUSH1 0x0 DUP1 RETURNDATACOPY RETURNDATASIZE PUSH1 0x0 REVERT JUMPDEST POP POP POP POP PUSH1 0x40 MLOAD RETURNDATASIZE PUSH1 0x1F NOT PUSH1 0x1F DUP3 ADD AND DUP3 ADD DUP1 PUSH1 0x40 MSTORE POP DUP2 ADD SWAP1 PUSH2 0x5CA SWAP2 SWAP1 PUSH2 0x752 JUMP JUMPDEST POP POP POP SWAP2 POP POP PUSH5 0x2540BE400 DUP2 PUSH2 0x5E1 SWAP2 SWAP1 PUSH2 0x9C5 JUMP JUMPDEST SWAP3 POP POP POP SWAP1 JUMP JUMPDEST DUP3 DUP1 SLOAD DUP3 DUP3 SSTORE SWAP1 PUSH1 0x0 MSTORE PUSH1 0x20 PUSH1 0x0 KECCAK256 SWAP1 DUP2 ADD SWAP3 DUP3 ISZERO PUSH2 0x661 JUMPI SWAP2 PUSH1 0x20 MUL DUP3 ADD JUMPDEST DUP3 DUP2 GT ISZERO PUSH2 0x660 JUMPI DUP3 MLOAD DUP3 PUSH1 0x0 PUSH2 0x100 EXP DUP2 SLOAD DUP2 PUSH20 0xFFFFFFFFFFFFFFFFFFFFFFFFFFFFFFFFFFFFFFFF MUL NOT AND SWAP1 DUP4 PUSH20 0xFFFFFFFFFFFFFFFFFFFFFFFFFFFFFFFFFFFFFFFF AND MUL OR SWAP1 SSTORE POP SWAP2 PUSH1 0x20 ADD SWAP2 SWAP1 PUSH1 0x1 ADD SWAP1 PUSH2 0x608 JUMP JUMPDEST JUMPDEST POP SWAP1 POP PUSH2 0x66E SWAP2 SWAP1 PUSH2 0x672 JUMP JUMPDEST POP SWAP1 JUMP JUMPDEST JUMPDEST DUP1 DUP3 GT ISZERO PUSH2 0x68B JUMPI PUSH1 0x0 DUP2 PUSH1 0x0 SWAP1 SSTORE POP PUSH1 0x1 ADD PUSH2 0x673 JUMP JUMPDEST POP SWAP1 JUMP JUMPDEST PUSH1 0x0 DUP2 CALLDATALOAD SWAP1 POP PUSH2 0x69E DUP2 PUSH2 0xD1A JUMP JUMPDEST SWAP3 SWAP2 POP POP JUMP JUMPDEST PUSH1 0x0 DUP2 MLOAD SWAP1 POP PUSH2 0x6B3 DUP2 PUSH2 0xD31 JUMP JUMPDEST SWAP3 SWAP2 POP POP JUMP JUMPDEST PUSH1 0x0 DUP2 CALLDATALOAD SWAP1 POP PUSH2 0x6C8 DUP2 PUSH2 0xD48 JUMP JUMPDEST SWAP3 SWAP2 POP POP JUMP JUMPDEST PUSH1 0x0 DUP2 MLOAD SWAP1 POP PUSH2 0x6DD DUP2 PUSH2 0xD48 JUMP JUMPDEST SWAP3 SWAP2 POP POP JUMP JUMPDEST PUSH1 0x0 DUP2 MLOAD SWAP1 POP PUSH2 0x6F2 DUP2 PUSH2 0xD5F JUMP JUMPDEST SWAP3 SWAP2 POP POP JUMP JUMPDEST PUSH1 0x0 PUSH1 0x20 DUP3 DUP5 SUB SLT ISZERO PUSH2 0x70E JUMPI PUSH2 0x70D PUSH2 0xC97 JUMP JUMPDEST JUMPDEST PUSH1 0x0 PUSH2 0x71C DUP5 DUP3 DUP6 ADD PUSH2 0x68F JUMP JUMPDEST SWAP2 POP POP SWAP3 SWAP2 POP POP JUMP JUMPDEST PUSH1 0x0 PUSH1 0x20 DUP3 DUP5 SUB SLT ISZERO PUSH2 0x73B JUMPI PUSH2 0x73A PUSH2 0xC97 JUMP JUMPDEST JUMPDEST PUSH1 0x0 PUSH2 0x749 DUP5 DUP3 DUP6 ADD PUSH2 0x6B9 JUMP JUMPDEST SWAP2 POP POP SWAP3 SWAP2 POP POP JUMP JUMPDEST PUSH1 0x0 DUP1 PUSH1 0x0 DUP1 PUSH1 0x0 PUSH1 0xA0 DUP7 DUP9 SUB SLT ISZERO PUSH2 0x76E JUMPI PUSH2 0x76D PUSH2 0xC97 JUMP JUMPDEST JUMPDEST PUSH1 0x0 PUSH2 0x77C DUP9 DUP3 DUP10 ADD PUSH2 0x6E3 JUMP JUMPDEST SWAP6 POP POP PUSH1 0x20 PUSH2 0x78D DUP9 DUP3 DUP10 ADD PUSH2 0x6A4 JUMP JUMPDEST SWAP5 POP POP PUSH1 0x40 PUSH2 0x79E DUP9 DUP3 DUP10 ADD PUSH2 0x6CE JUMP JUMPDEST SWAP4 POP POP PUSH1 0x60 PUSH2 0x7AF DUP9 DUP3 DUP10 ADD PUSH2 0x6CE JUMP JUMPDEST SWAP3 POP POP PUSH1 0x80 PUSH2 0x7C0 DUP9 DUP3 DUP10 ADD PUSH2 0x6E3 JUMP JUMPDEST SWAP2 POP POP SWAP3 SWAP6 POP SWAP3 SWAP6 SWAP1 SWAP4 POP JUMP JUMPDEST PUSH2 0x7D6 DUP2 PUSH2 0xB36 JUMP JUMPDEST DUP3 MSTORE POP POP JUMP JUMPDEST PUSH1 0x0 PUSH2 0x7E9 PUSH1 0x12 DUP4 PUSH2 0x92D JUMP JUMPDEST SWAP2 POP PUSH2 0x7F4 DUP3 PUSH2 0xC9C JUMP JUMPDEST PUSH1 0x20 DUP3 ADD SWAP1 POP SWAP2 SWAP1 POP JUMP JUMPDEST PUSH1 0x0 PUSH2 0x80C PUSH1 0xB DUP4 PUSH2 0x92D JUMP JUMPDEST SWAP2 POP PUSH2 0x817 DUP3 PUSH2 0xCC5 JUMP JUMPDEST PUSH1 0x20 DUP3 ADD SWAP1 POP SWAP2 SWAP1 POP JUMP JUMPDEST PUSH1 0x0 PUSH2 0x82F PUSH1 0x0 DUP4 PUSH2 0x922 JUMP JUMPDEST SWAP2 POP PUSH2 0x83A DUP3 PUSH2 0xCEE JUMP JUMPDEST PUSH1 0x0 DUP3 ADD SWAP1 POP SWAP2 SWAP1 POP JUMP JUMPDEST PUSH1 0x0 PUSH2 0x852 PUSH1 0xB DUP4 PUSH2 0x92D JUMP JUMPDEST SWAP2 POP PUSH2 0x85D DUP3 PUSH2 0xCF1 JUMP JUMPDEST PUSH1 0x20 DUP3 ADD SWAP1 POP SWAP2 SWAP1 POP JUMP JUMPDEST PUSH2 0x871 DUP2 PUSH2 0xB72 JUMP JUMPDEST DUP3 MSTORE POP POP JUMP JUMPDEST PUSH1 0x0 PUSH2 0x882 DUP3 PUSH2 0x822 JUMP JUMPDEST SWAP2 POP DUP2 SWAP1 POP SWAP2 SWAP1 POP JUMP JUMPDEST PUSH1 0x0 PUSH1 0x20 DUP3 ADD SWAP1 POP PUSH2 0x8A1 PUSH1 0x0 DUP4 ADD DUP5 PUSH2 0x7CD JUMP JUMPDEST SWAP3 SWAP2 POP POP JUMP JUMPDEST PUSH1 0x0 PUSH1 0x20 DUP3 ADD SWAP1 POP DUP2 DUP2 SUB PUSH1 0x0 DUP4 ADD MSTORE PUSH2 0x8C0 DUP2 PUSH2 0x7DC JUMP JUMPDEST SWAP1 POP SWAP2 SWAP1 POP JUMP JUMPDEST PUSH1 0x0 PUSH1 0x20 DUP3 ADD SWAP1 POP DUP2 DUP2 SUB PUSH1 0x0 DUP4 ADD MSTORE PUSH2 0x8E0 DUP2 PUSH2 0x7FF JUMP JUMPDEST SWAP1 POP SWAP2 SWAP1 POP JUMP JUMPDEST PUSH1 0x0 PUSH1 0x20 DUP3 ADD SWAP1 POP DUP2 DUP2 SUB PUSH1 0x0 DUP4 ADD MSTORE PUSH2 0x900 DUP2 PUSH2 0x845 JUMP JUMPDEST SWAP1 POP SWAP2 SWAP1 POP JUMP JUMPDEST PUSH1 0x0 PUSH1 0x20 DUP3 ADD SWAP1 POP PUSH2 0x91C PUSH1 0x0 DUP4 ADD DUP5 PUSH2 0x868 JUMP JUMPDEST SWAP3 SWAP2 POP POP JUMP JUMPDEST PUSH1 0x0 DUP2 SWAP1 POP SWAP3 SWAP2 POP POP JUMP JUMPDEST PUSH1 0x0 DUP3 DUP3 MSTORE PUSH1 0x20 DUP3 ADD SWAP1 POP SWAP3 SWAP2 POP POP JUMP JUMPDEST PUSH1 0x0 PUSH2 0x949 DUP3 PUSH2 0xB72 JUMP JUMPDEST SWAP2 POP PUSH2 0x954 DUP4 PUSH2 0xB72 JUMP JUMPDEST SWAP3 POP DUP3 PUSH32 0xFFFFFFFFFFFFFFFFFFFFFFFFFFFFFFFFFFFFFFFFFFFFFFFFFFFFFFFFFFFFFFFF SUB DUP3 GT ISZERO PUSH2 0x989 JUMPI PUSH2 0x988 PUSH2 0xBDB JUMP JUMPDEST JUMPDEST DUP3 DUP3 ADD SWAP1 POP SWAP3 SWAP2 POP POP JUMP JUMPDEST PUSH1 0x0 PUSH2 0x99F DUP3 PUSH2 0xB72 JUMP JUMPDEST SWAP2 POP PUSH2 0x9AA DUP4 PUSH2 0xB72 JUMP JUMPDEST SWAP3 POP DUP3 PUSH2 0x9BA JUMPI PUSH2 0x9B9 PUSH2 0xC0A JUMP JUMPDEST JUMPDEST DUP3 DUP3 DIV SWAP1 POP SWAP3 SWAP2 POP POP JUMP JUMPDEST PUSH1 0x0 PUSH2 0x9D0 DUP3 PUSH2 0xB48 JUMP JUMPDEST SWAP2 POP PUSH2 0x9DB DUP4 PUSH2 0xB48 JUMP JUMPDEST SWAP3 POP DUP3 PUSH32 0x7FFFFFFFFFFFFFFFFFFFFFFFFFFFFFFFFFFFFFFFFFFFFFFFFFFFFFFFFFFFFFFF DIV DUP3 GT PUSH1 0x0 DUP5 SGT PUSH1 0x0 DUP5 SGT AND AND ISZERO PUSH2 0xA1A JUMPI PUSH2 0xA19 PUSH2 0xBDB JUMP JUMPDEST JUMPDEST DUP2 PUSH32 0x8000000000000000000000000000000000000000000000000000000000000000 SDIV DUP4 SLT PUSH1 0x0 DUP5 SLT PUSH1 0x0 DUP5 SGT AND AND ISZERO PUSH2 0xA57 JUMPI PUSH2 0xA56 PUSH2 0xBDB JUMP JUMPDEST JUMPDEST DUP3 PUSH32 0x8000000000000000000000000000000000000000000000000000000000000000 SDIV DUP3 SLT PUSH1 0x0 DUP5 SGT PUSH1 0x0 DUP5 SLT AND AND ISZERO PUSH2 0xA94 JUMPI PUSH2 0xA93 PUSH2 0xBDB JUMP JUMPDEST JUMPDEST DUP3 PUSH32 0x7FFFFFFFFFFFFFFFFFFFFFFFFFFFFFFFFFFFFFFFFFFFFFFFFFFFFFFFFFFFFFFF SDIV DUP3 SLT PUSH1 0x0 DUP5 SLT PUSH1 0x0 DUP5 SLT AND AND ISZERO PUSH2 0xAD1 JUMPI PUSH2 0xAD0 PUSH2 0xBDB JUMP JUMPDEST JUMPDEST DUP3 DUP3 MUL SWAP1 POP SWAP3 SWAP2 POP POP JUMP JUMPDEST PUSH1 0x0 PUSH2 0xAE7 DUP3 PUSH2 0xB72 JUMP JUMPDEST SWAP2 POP PUSH2 0xAF2 DUP4 PUSH2 0xB72 JUMP JUMPDEST SWAP3 POP DUP2 PUSH32 0xFFFFFFFFFFFFFFFFFFFFFFFFFFFFFFFFFFFFFFFFFFFFFFFFFFFFFFFFFFFFFFFF DIV DUP4 GT DUP3 ISZERO ISZERO AND ISZERO PUSH2 0xB2B JUMPI PUSH2 0xB2A PUSH2 0xBDB JUMP JUMPDEST JUMPDEST DUP3 DUP3 MUL SWAP1 POP SWAP3 SWAP2 POP POP JUMP JUMPDEST PUSH1 0x0 PUSH2 0xB41 DUP3 PUSH2 0xB52 JUMP JUMPDEST SWAP1 POP SWAP2 SWAP1 POP JUMP JUMPDEST PUSH1 0x0 DUP2 SWAP1 POP SWAP2 SWAP1 POP JUMP JUMPDEST PUSH1 0x0 PUSH20 0xFFFFFFFFFFFFFFFFFFFFFFFFFFFFFFFFFFFFFFFF DUP3 AND SWAP1 POP SWAP2 SWAP1 POP JUMP JUMPDEST PUSH1 0x0 DUP2 SWAP1 POP SWAP2 SWAP1 POP JUMP JUMPDEST PUSH1 0x0 PUSH10 0xFFFFFFFFFFFFFFFFFFFF DUP3 AND SWAP1 POP SWAP2 SWAP1 POP JUMP JUMPDEST PUSH1 0x0 PUSH2 0xB9D DUP3 PUSH2 0xB72 JUMP JUMPDEST SWAP2 POP PUSH32 0xFFFFFFFFFFFFFFFFFFFFFFFFFFFFFFFFFFFFFFFFFFFFFFFFFFFFFFFFFFFFFFFF DUP3 EQ ISZERO PUSH2 0xBD0 JUMPI PUSH2 0xBCF PUSH2 0xBDB JUMP JUMPDEST JUMPDEST PUSH1 0x1 DUP3 ADD SWAP1 POP SWAP2 SWAP1 POP JUMP JUMPDEST PUSH32 0x4E487B7100000000000000000000000000000000000000000000000000000000 PUSH1 0x0 MSTORE PUSH1 0x11 PUSH1 0x4 MSTORE PUSH1 0x24 PUSH1 0x0 REVERT JUMPDEST PUSH32 0x4E487B7100000000000000000000000000000000000000000000000000000000 PUSH1 0x0 MSTORE PUSH1 0x12 PUSH1 0x4 MSTORE PUSH1 0x24 PUSH1 0x0 REVERT JUMPDEST PUSH32 0x4E487B7100000000000000000000000000000000000000000000000000000000 PUSH1 0x0 MSTORE PUSH1 0x32 PUSH1 0x4 MSTORE PUSH1 0x24 PUSH1 0x0 REVERT JUMPDEST PUSH32 0x4E487B7100000000000000000000000000000000000000000000000000000000 PUSH1 0x0 MSTORE PUSH1 0x41 PUSH1 0x4 MSTORE PUSH1 0x24 PUSH1 0x0 REVERT JUMPDEST PUSH1 0x0 DUP1 REVERT JUMPDEST PUSH32 0x4469646E27742073656E6420656E6F7567680000000000000000000000000000 PUSH1 0x0 DUP3 ADD MSTORE POP JUMP JUMPDEST PUSH32 0x53656E64204661696C6564000000000000000000000000000000000000000000 PUSH1 0x0 DUP3 ADD MSTORE POP JUMP JUMPDEST POP JUMP JUMPDEST PUSH32 0x43616C6C204661696C6564000000000000000000000000000000000000000000 PUSH1 0x0 DUP3 ADD MSTORE POP JUMP JUMPDEST PUSH2 0xD23 DUP2 PUSH2 0xB36 JUMP JUMPDEST DUP2 EQ PUSH2 0xD2E JUMPI PUSH1 0x0 DUP1 REVERT JUMPDEST POP JUMP JUMPDEST PUSH2 0xD3A DUP2 PUSH2 0xB48 JUMP JUMPDEST DUP2 EQ PUSH2 0xD45 JUMPI PUSH1 0x0 DUP1 REVERT JUMPDEST POP JUMP JUMPDEST PUSH2 0xD51 DUP2 PUSH2 0xB72 JUMP JUMPDEST DUP2 EQ PUSH2 0xD5C JUMPI PUSH1 0x0 DUP1 REVERT JUMPDEST POP JUMP JUMPDEST PUSH2 0xD68 DUP2 PUSH2 0xB7C JUMP JUMPDEST DUP2 EQ PUSH2 0xD73 JUMPI PUSH1 0x0 DUP1 REVERT JUMPDEST POP JUMP INVALID LOG2 PUSH5 0x6970667358 0x22 SLT KECCAK256 SMOD 0xC6 DUP13 DUP13 SSTORE MULMOD PUSH18 0xEBF1270395B61767806AEC18FAF2C1C8351 DUP5 0xDF XOR DUP6 EXTCODESIZE 0xC1 COINBASE PUSH5 0x736F6C6343 STOP ADDMOD SMOD STOP CALLER "
				},
				"gasEstimates": {
					"creation": {
						"codeDepositCost": "700000",
						"executionCost": "22840",
						"totalCost": "722840"
					},
					"external": {
						"addressToAmountFunded(address)": "2836",
						"fund()": "infinite",
						"funders(uint256)": "5022",
						"minimumUsd()": "2407",
						"withdraw()": "infinite"
					}
				},
				"methodIdentifiers": {
					"addressToAmountFunded(address)": "3e47d6f3",
					"fund()": "b60d4288",
					"funders(uint256)": "dc0d3dff",
					"minimumUsd()": "098de820",
					"withdraw()": "3ccfd60b"
				}
			},
			"storageLayout": {
				"storage": [
					{
						"astId": 56,
						"contract": "contracts/FundMe.sol:FundMe",
						"label": "minimumUsd",
						"offset": 0,
						"slot": "0",
						"type": "t_uint256"
					},
					{
						"astId": 59,
						"contract": "contracts/FundMe.sol:FundMe",
						"label": "funders",
						"offset": 0,
						"slot": "1",
						"type": "t_array(t_address)dyn_storage"
					},
					{
						"astId": 63,
						"contract": "contracts/FundMe.sol:FundMe",
						"label": "addressToAmountFunded",
						"offset": 0,
						"slot": "2",
						"type": "t_mapping(t_address,t_uint256)"
					}
				],
				"types": {
					"t_address": {
						"encoding": "inplace",
						"label": "address",
						"numberOfBytes": "20"
					},
					"t_array(t_address)dyn_storage": {
						"base": "t_address",
						"encoding": "dynamic_array",
						"label": "address[]",
						"numberOfBytes": "32"
					},
					"t_mapping(t_address,t_uint256)": {
						"encoding": "mapping",
						"key": "t_address",
						"label": "mapping(address => uint256)",
						"numberOfBytes": "32",
						"value": "t_uint256"
					},
					"t_uint256": {
						"encoding": "inplace",
						"label": "uint256",
						"numberOfBytes": "32"
					}
				}
			},
			"userdoc": {
				"kind": "user",
				"methods": {},
				"version": 1
			}
		}
	}
}